:100000000C94D6150C94FE150C94FE150C94FE154C
:100010000C94FE150C94FE150C94FE150C94FE1514
:100020000C94FE150C94E8160C9477160C94FE159F
:100030000C94FE150C94D6160C94FE150C94FE151B
:100040000C94941A0C94FE150C94FE150C94FE1549
:100050000C94FE150C94FE150C94FE150C94FE15D4
:100060000C94FE150C94FE15C41FD31FDE1FE31F56
:10007000EA1F022025207A20BC26F226B826CF26A9
:10008000B526E12623275627212736271D2739277E
:100090004E27542708000000BE922449123EABAA06
:1000A000AA2ABECDCCCC4C3E00000080BEABAAAA92
:1000B000AA3E00000000BF000000803F00000000DA
:1000C00000084178D3BB4387D1133D190E3CC3BD13
:1000D0004282AD2B3E68EC8276BED98FE1A93E4CC0
:1000E00080EFFFBE01C4FF7F3F0000000000000161
:1000F00002030405060708090A0B0C0F113C1268DD
:100100007800383C7896003C2A82B40E481442E0CD
:10011000002A346AA03C6C121048406C2420608C89
:100120006C24325AB474242050967C28BE5A287C01
:100130000000500088000050008800006E0094000D
:10014000005A009A00002D00FFFFFFFFFFFFFFFF96
:10015000FFFFFFFFFFFFFFFFFFFFFFFFFFFFFFFFAF
:10016000FFFFFFFFFFFFFFFFFFFFFFFFFFFFFFFF9F
:10017000FFFFFFFFFFFFFFFFFFFFFFFFFFFFFFFF8F
:10018000FFFFFFFFFFFFFFFFFFFFFFFFFFFFFFFF7F
:10019000FFFFFFFFFFFFFFFFFFFFFFFFFFFFFFFF6F
:1001A000FFFFFFFFFFFFFFFFFFFFFFFFFFFFFFFF5F
:1001B000FFFFFFFFFFFFFFFFFFFFFFFF0004030044
:1001C0000000000400000000000500000000000620
:1001D000030000000006000000000007000000000F
:1001E000000800000000000900000000000A0000F4
:1001F0000000000B000000000018000000000002DA
:1002000004000000000302E02000001401000700C9
:10021000001500000000000C00000000000D0000B0
:100220000000000E00000000000F000000000010A1
:100230000000000000110000000001020514F000A1
:10024000010300000000010001000800010101009D
:100250000500011501000F00000002FE0200000170
:1002600002817F0000190300000000190000000057
:10027000001A000000000016000000000017000037
:10028000000001040000000001050000000001065C
:10029000000000000107000000000108000000004D
:1002A000010900000000010A00000000010B00002D
:1002B0000000010C00000000010D00000000010022
:1002C000000000005555FA50DE4CFC485145D9411C
:1002D000933E793B8B38C6352633AA30502E162CE8
:1002E000FA29FA27152649249522F7206F1FFA1DAF
:1002F000981C491B0A1ADB18BB17A916A515AD14C3
:10030000C213E2120D1242118110CA0F1B0F740E9C
:10031000D50D3E0DAD0C240CA10B240BAC0A3A0AF2
:10032000CE0966090309A4084A08F407A107530780
:100330000707BF067A063906FA05BD0584054C0590
:100340001805E504B50486045A042F040704E003E5
:10035000BA0396037403530333031503F802DC0254
:10036000C102A7028E02770260024A023502210210
:100370000D02FB01E901D801C701B701A8019901EC
:100380008B017D017001630157014C014001360171
:100390002B01210117010E010501FC00F400EC0006
:1003A000E400DD00D600CF00C800C100BB00B500EE
:1003B000AF00AA00A4009F009A00950091008C0055
:1003C000880083007F007B007800740070006D005F
:1003D0006A006600630060005D005B005800550025
:1003E000530050004E004B004900470045004300B9
:1003F00041003F003D003C003A0038003700350026
:100400003300320031002F002E002D002B002A0077
:1004100029002800270026002500240023002200B0
:10042000210020001F001E001D001C001C001B00DE
:100430001A001900190018001700170016001600FE
:100440001500150014001300130012001200110013
:1004500011001100100010000F000F000F000E001F
:100460000E000D000D000D000C000C000C000B0028
:100470000B000B000B000A000A000A000A0009002A
:100480000900090009000800080008000800080029
:100490000700070007000700070007000600060026
:1004A0000600060006000600050005000500050020
:1004B0000500050005000500040004000400040018
:1004C00004000400FF3F4B3B02371B338B2F492CAA
:1004D0004E2991260E24BE219D1FA61DD61B281A2B
:1004E0009B182A17D41597146F135C125C116D10AA
:1004F0008E0FBD0EFA0D440D990CF80B610BD40A4A
:100500004F0AD2095C09ED0884082208C5076D0767
:100510001907CB0680063A06F705B7057B054205A5
:100520000C05D804A70479044D042204FA03D4036B
:10053000AF038D036B034C032D031003F502DA02A6
:10054000C102A90291027B02660251023E022B0205
:1005500019020802F701E701D801C901BB01AD0189
:10056000A001940188017C01710166015B015101C8
:1005700048013E0135012D0124011C0114010D012A
:100580000501FE00F700F100EB00E400DE00D900F9
:10059000D300CE00C800C300BE00BA00B500B10051
:1005A000AC00A800A400A0009C0098009500910059
:1005B0008E008B008700840081007E007B00790024
:1005C0007600730071006E006C006A0067006500C1
:1005D000630061005F005D005B005900570055003B
:1005E0005300520050004E004D004B004A0048009E
:1005F0004700450044004300420040003F003E00E9
:100600003D003B003A003900380037003600350025
:100610003400330032003100300030002F002E0053
:100620002D002C002B002B002A0029002900280077
:100630002700260026002500250024002300230093
:10064000220022002100200020001F001F001E00A9
:100650001E001D001D001C001C001C001B001B00B8
:100660001A001A00190019001900180018001800C3
:1006700017001700170016001600160015001500C9
:1006800015001400140014001300130013001300CD
:1006900012001200120012001100110011001100CE
:1006A00010001000100010000F000F000F000F00CE
:1006B0000F000E000E000E000E000E000D000D00CB
:1006C0000D000D000C000C000D000D000E000E00C2
:1006D0000E000F000F00100010001100110012009A
:1006E0001200130013001400150015001600160068
:1006F00017001800190019001A001B001C001C002C
:100700001D001E001F0020002100220023002400E5
:1007100025002600270028002A002B002C002D0091
:100720002F00300032003300350036003800390029
:100730003B003D003F0040004200440046004800AE
:100740004B004D004F0051005400560059005B0013
:100750005E006100640067006A006D007000730055
:1007600077007A007E008100850089008D0091006D
:1007700096009A009F00A300A800AD00B200B70049
:10078000BD00C200C800CE00D400DA00E100E700DE
:10079000EE00F500FC0003010B0113011B01230116
:1007A0002C0135013E01470151015B0165016F01DB
:1007B0007A01850190019C01A801B501C201CF0118
:1007C000DC01EA01F901070217022602370247029B
:1007D00058026A027C028F02A202B602CA02DF023B
:1007E000F4020B032103390351036A0384039E03BC
:1007F000B903D503F2030F042E044D046E048F04D5
:10080000B104D404F8041E0544056C059405BE0526
:10081000E905160643067206A306D40608073C0738
:100820007307AB07E4071F085C089B08DC081E0978
:100830006209A909F1093C0A890AD80A290B7D0B2A
:10084000D30B2C0C870CE50C460DA90D100E790E60
:10085000E60E560FC90F3F10B9103611B8113D12F0
:10086000C5125213E31378141215B0155316FA1665
:10087000A61758180F19CB198C1A531B201CF31CE0
:10088000CC1DAC1E921F7F2073216D2270237A2411
:100890008B25A526C727F128242A602BA62CF52D09
:1008A0004D2FB0301E3296331835A7364138E73910
:1008B000993B583D243FFE40E642DB44E046F44885
:1008C000174B4A4D8E4F03ED4EEB9DE9EEE743E6A5
:1008D0009BE4F6E254E1B5DF19DE80DCEADA57D9B1
:1008E000C7D739D6AFD427D3A2D120D0A1CE24CD1B
:1008F000AACB33CABFC84DC7DEC572C408C3A1C1E5
:100900003CC0DABE7ABD1DBCC3BA6BB915B8C2B65D
:1009100072B524B4D8B28FB148B003AFC1AD81ACC9
:1009200043AB07AACEA897A763A630A500A4D2A27E
:10093000A6A17CA0559F2F9E0C9DEB9BCC9AAF99B6
:1009400094987B9764964F953C942B931C920E91B0
:100950000390FA8EF38DED8CEA8BE88AE889EA88B9
:10096000EE87F486FB8504850F841C832B823B81F4
:100970004D80617F767E8D7DA67CC07BDC7AFA79A6
:100980001A793B785D77817600000B040608F10B3D
:10099000CD0F9A135717061BA61E3822BB253129E7
:1009A000982CF32F40338036B339D93CF33F0043C2
:1009B0000146F748E14BBF4E915159541657C7595C
:1009C0006E5C0B5F9D612564A2661669806BE16DAC
:1009D00038708672CB7407773A79647B857D9E7F09
:1009E000AF81B883B885B187A1898A8B6C8D468F1A
:1009F0001991E492A89466961C98CB99749B179DC4
:100A0000B29E48A0D7A160A3E3A460A6D7A748A937
:100A1000B3AA19AC79ADD4AE29B07AB1C4B20AB4D4
:100A20004BB587B6BDB7F0B81DBA45BB69BC89BD2B
:100A3000A4BEBBBFCDC0DBC1E5C2EBC3ECC4EAC5FD
:100A4000E4C6DAC7CCC8BAC9A5CA8CCB6FCC4FCD27
:100A50002CCE05CFDACFADD07CD147D210D3D6D3B0
:100A600098D458D514D6CED685D739D8EAD898D9BF
:100A700044DAEDDA93DB37DCD8DC77DD13DEADDE8C
:100A800045DFDADF6DE0FDE08CE118E2A2E229E368
:100A9000AFE333E4B4E434E5B1E52DE6A7E61FE7C0
:100AA00095E709E87BE8ECE85BE9C8E933EA9DEA09
:100AB00005EB6BEBD0EB34EC96ECF6EC55EDB2EDD0
:100AC0000EEE68EEC1EE19EF6FEFC4EF18F06AF0AA
:100AD000BCF00BF15AF1A7F1F3F13EF288F2D1F23A
:100AE00019F35FF3A4F3E9F32CF46EF4AFF4EFF42D
:100AF0002FF56DF5AAF5E6F522F65CF695F6CEF63D
:100B000006F73DF773F7A8F7DCF710F842F874F82A
:100B1000A6F8D6F806F935F963F990F9BDF9E9F9BF
:100B200015FA3FFA69FA93FABCFAE4FA0BFB32FBC6
:100B300058FB7EFBA3FBC8FBECFB0FFC32FC54FC18
:100B400076FC98FCB8FCD9FCF8FC18FD36FD55FD88
:100B500073FD90FDADFDC9FDE5FD01FE1CFE37FEF8
:100B600051FE6BFE85FE9EFEB6FECFFEE7FEFEFE4C
:100B700016FF2CFF43FF59FF6FFF84FF9AFFAEFF64
:100B8000C3FFD7FFEBFFFFFFFFFF7F007F0081FF69
:100B900081FF7F007F0081FF81FF7F007F0081FF59
:100BA00081FF7F007F0081FF81FF7F0081FF7F0049
:100BB00081FF7F0081FF7F0081FF7F0081FF7F0039
:100BC00081FF7F0081FF7F0081FFC1FFC1FF7F00A8
:100BD000000081FF000000005800000000005800E5
:100BE000CEFFA8FF00005800000013002C005D009D
:100BF000FCFF2000CBFFA6FF81FF750020009AFFBD
:100C0000CBFF6900CBFF5D00CBFF58009BFF6B0063
:100C1000A1FF5800A8FF3200DAFF4100A8FF6500DD
:100C2000A1FF650081FF3F00E1FF4600ACFF5400DB
:100C300090FF54009EFF70009EFF3600BAFF7F00B9
:100C4000ACFF7F0090FF5400ACFF1111515155557E
:100C5000CF03CF5BFFFF000000000000000050C585
:100C600001009ED2010051E001006AEE0100EEFC9D
:100C70000100DE0B02003F1B0200142B02005F3B51
:100C80000200254C0200695D02002E6F020079818E
:100C900002004E940200B0A70200A4BB02002DD0B7
:100CA000020052E5020014FB02007B1103008A28B7
:100CB000030046400300B4580300DA710300BD8B03
:100CC000030063A60300D1C103000DDE03001DFB7A
:100CD000030007190400D337040085570400267861
:100CE0000400BD9904004FBC0400E5DF0400870444
:100CF00005003C2A05000D5105000179050021A2DF
:100D0000050077CC05000AF80500E524060012531B
:100D100006009982060085B30600E1E50600B719D2
:100D20000700134F0700008607008ABE0700BCF8C3
:100D30000700A43408004E720800C8B108001EF372
:100D40000800603609009B7B0900DEC20900390CEF
:100D50000A00BB570A0074A50A0075F50A00D047BF
:100D60000B00969C0B00D8F30B00AB4D0C0020AA97
:100D70000C004C090D00446B0D001BD00D00E93731
:100D80000E00C2A20E00BF100F00F6810F007FF60A
:100D90000F00756E1000F0E910000B691100E1EB17
:100DA00011008E72120030FD1200E38B1300C71E7B
:100DB0001400FAB514009E511500D3F11500BD962C
:100DC00016007D40170039EF170017A318003C5C90
:100DD0001900D01A1A00FDDE1A00EBA81B00C87813
:100DE0001C00BE4E1D00FC2A1E00B20D1F000FF796
:100DF0001F0045E7200089DE21000FDD22000EE301
:100E00002300BEF0240058062600182427003C4A80
:100E1000280002792900ACB02A007BF12B00B63BF8
:100E20002D00A28F2E0089ED2F00B555310074C81A
:100E3000320014463400E9CE3500466337008103A2
:100E40003900F5AF3A00FC683C00F62E3E00430244
:100E5000400047E341006BD2430017D04500BADCA5
:100E60004700C3F84900A7244C00DC604E00DDAD0C
:100E70005000280C53003F7C5500A9FE5700EE930C
:100E80005A009D3C5D0046F95F0081CA6200E9B0EE
:100E900065001BAD6800BCBF6B0074E96E00F22AF0
:100EA0007200E78475000BF878001C857C00DD2C4F
:100EB000800015F0830095CF87002FCC8B00BFE614
:100EC0008F00252094004B7998001DF39C00928E92
:100ED000A100A74CA6005F2EAB00C734B000F260A3
:100EE000B500FCB3BA00092FC00046D3C500E8A185
:100EF000CB002E9CD10060C3D700CF18DE00D79D59
:100F0000E400DD53EB00533CF200B258F90081AA33
:100F1000000151330801C1F40F0178F017012E28A8
:100F20002001A59D2801AD52310124493A01F682E4
:100F300043011C024D01A0C856019BD86001333407
:100F40006B01A2DD750131D7800138238C0125C4E6
:100F5000970176BCA301BA0EB00196BDBC01C2CB0D
:100F6000C9010A3CD7014F11E501894EF301C3F6CF
:100F70000102240D1102E69420025D913002F60573
:100F8000410239F65102C66563025A587502CED144
:100F9000870217D69A024869AE02948FC2024D4D5D
:100FA000D702E3A6EC02EAA002031840190346891F
:100FB000300372814803BE2D610375937A0307B82D
:100FC00094030FA1AF035154CB03BDD7E703703196
:100FD0000504B2672304FF8042040184620492770F
:100FE0008304C462A504DB4CC804533DEC04DF3B1E
:100FF00011056D50370527835E0572DC8605F564A3
:10100000B0059525DB057D2707061B7434062415DE
:10101000630697149306BC7CC4062B58F706C9B127
:101020002B07CE946107C70C99079825D2077CEB54
:101030000C080C6B49083FB187086ECBC70856C730
:1010400009091AB34D09499D9309DF94DB0948A9A1
:10105000250A64EA710A5555555590B8144EF9C7DA
:101060008A47ED29A341FC0A4C3CD9C575374C98F9
:1010700012332163162F5C73762B315329289EA1DE
:1010800026259BEF662210A2E31FDDD7961D555340
:101090007B1BB2668C1919E3C517C80924162D7F6E
:1010A000A314933F41134095FA11C50FCD10607CF6
:1010B000B60F3FDFB40E9E6DC60D8988E90C3FB8B0
:1010C0001C0C1EA85E0B0523AE0A1B100A0AF46F47
:1010D00071090B5AE30879FA5E08F58FE307016A94
:1010E000700752E704075C74A006098A42068CACBC
:1010F000EA055A6A9805375B4B05621F0305CC5E0B
:10110000BF0470C87F04AE114404C1F50B043A3526
:10111000D7038A95A5039CE0760371E44A03CB725A
:101120002103DA60FA02F786D50260C0B202FEEA55
:1011300091022DE772028B975502C8E0390282A90D
:101140001F0217DA06028B5CEF015F1CD9017C06D7
:10115000C4011309B00188139D0155168B01FF02CC
:101160007A01FBCB69019F645A0111C14B013DD645
:101170003D01BE993001DA01240172051801F99B85
:101180000C0167BD01013362F7004B83ED00091AC2
:10119000E4002B20DB00D38FD2007763CA00E595F3
:1011A000C2003622BB00CB03B4004C36AD009EB566
:1011B000A600E47DA000768B9A00E5DA9400EE6844
:1011C0008F007F328A00B3348500C96C800029D833
:1011D0007B00617477001C3F730028366F007157E5
:1011E0006B00FCA06700ED1064007DA56000FF5C53
:1011F0005D00DA355A008C2E5700A6455400CA7996
:101200005100AEC94E0018344C00DBB74900DD5325
:1012100047000F07450070D042000BAF4000F8A117
:101220003E005AA83C005EC13A003AEC3800302833
:1012300037008974350097D03300B53B320045B58F
:101240003000AF3C2F0065D12D00DC722C009220C5
:101250002B000ADA2900CB9E2800646E270068481C
:1012600026006E2C2500131A2400F7102300BF104F
:10127000220014192100A22920001A421F002E6208
:101280001E0096891D000CB81C004BED1B00142994
:101290001B002A6B1A0050B319004F011900EF54BC
:1012A0001800FDAD1700470C17009C6F1600CFD734
:1012B0001500B34415001DB61400E62B1400E6A576
:1012C0001300F7231300F5A51200BD2B12002EB555
:1012D0001100284211008DD210003D6610001DFD46
:1012E0000F0012970F0001340F00D0D30E00677665
:1012F0000E00AE1B0E008FC30D00F56D0D00C91A58
:101300000D00F8C90C006E7B0C00182F0C00E5E4F2
:101310000B00C29C0B00A0560B006D120B001AD0E4
:101320000A00988F0A00D8500A00CD130A0068D826
:1013300009009D9E09005F660900A22F09005AFA64
:1013400008007BC60800FC930800D0620800EE325B
:1013500008004D040800E1D60700A3AA0700897F12
:1013600007008B550700A02C0700C0040700E4DD30
:10137000060004B8060018930600196F0600024C18
:101380000600CA2906006C080600E2E7050024C82A
:1013900005002FA90500FC8A0500856D0500C650D3
:1013A0000500B934050059190500A2FE04008FE4B8
:1013B00004001BCB040042B20400FF9904005082D9
:1013C00004002F6B04009A5404008B3E0400002993
:1013D0000400F513040067FF030052EB0300B3D7CA
:1013E000030087C40300CBB103007C9F0300978DEB
:1013F00003001A7C0300026B03004C5A0300F649F9
:101400000300FC3903005E2A0300181B0300290CAB
:1014100003008EFD020044EF02004BE102009FD367
:10142000020040C602002AB902005DAC0200D79F4C
:1014300002009593020096870200D87B02005B7041
:1014400002001B650200195A0200514F0200C444F9
:1014500002006F3A02000003070A0D101316191C50
:101460001E212426292B2E30333537393C3E40426D
:101470004446484A4B4D4F5152545557585A5B5D5C
:101480005E5F61626364656667696A6B6B6C6D6EF3
:101490006F7071717273737475757676777778780B
:1014A00079797A7A7A7B7B7B7C7C7C7D7D7D7D7D86
:1014B0007E7E7E7E7E7E7F7F7F7F7F7F7F7F7F7F42
:1014C0007F7F7F7F7F7F7F7F7F7F7F7F7F7F7F7F2C
:1014D0007F8080808080808080808080808080800D
:1014E00080808080808080808080808080808080FC
:1014F00080808080808081818181818182828282DE
:10150000828383838484848585858686878788888B
:1015100089898A8A8B8C8C8D8E8E8F9091929394F0
:1015200094959698999A9B9C9D9EA0A1A2A4A5A7EC
:10153000A8AAABADAEB0B2B4B5B7B9BBBDBFC1C35D
:10154000C6C8CACCCFD1D4D6D9DBDEE1E3E6E9EC1C
:10155000EFF2F5F8FCFFF4F4F4F4F4F4F4F4F4F43A
:10156000F4F4F4F4F4F4F4F4F4F4F4F5F5F5F6F634
:10157000F6F7F7F7F8F8F8F8F9F9F9FAFAFAFBFBE1
:10158000FBFCFCFCFCFDFDFDFEFEFEFFFFFF000082
:10159000000000000000000000000000000000004B
:1015A0000000000000000000000001010102020232
:1015B00003030304040404050505060606070707DC
:1015C000080808080909090A0A0A0B0B0B0C0C0C7D
:1015D0000C0C0C0C0C0C0C0C0C0C0C0C0C0C0C0C4B
:1015E0000C0C0C0C0C0C0D0D0D0E0E0E0F0F0F1025
:1015F00010101011111112121213131314141414C9
:10160000151515161616171717181818181818186C
:10161000181818181818181818181818181818184A
:1016200018181919191A1A1A1B1B1B1C1C1C1C1D13
:101630001D1D1E1E1E1F1F1F2020202021212122B4
:101640002222232323242424242424242424242461
:10165000242424242424FFFDFBF9F7F5F3F1EFED16
:10166000EBE9E7E5E3E1DFDDDBD9D8D6D4D2D0CFB3
:10167000CDCBC9C7C6C4C2C1BFBDBCBAB8B7B5B46B
:10168000B2B0AFADACAAA9A7A6A4A3A1A09E9D9BF2
:101690009A999796949392908F8E8C8B8A8887864E
:1016A000848382817F7E7D7C7B7978777675737287
:1016B00071706F6E6D6C6A6968676665646362619C
:1016C000605F5E5D5C5B5A59585756555453525192
:1016D000504F4F4E4D4C4B4A49484847464544436E
:1016E000434241403F3E3E3D3C3B3B3A3938383730
:1016F000363535343332323130302F2E2E2D2C2CDE
:101700002B2A2A2928282726262525242323222276
:101710002120201F1F1E1D1D1C1C1B1B1A1A1918FF
:101720001817171616151514141313121211111079
:10173000100F0F0E0E0E0D0D0C0C0B0B0A0A0A09E2
:10174000090808070707060605050504040303033F
:1017500002020101010000FFFCF9F6F3F0EDEAE7F7
:10176000E4E1DEDBD8D5D2CFCCCAC7C4C1BFBCB997
:10177000B7B4B2B0ADABA9A6A4A2A09E9C9A98970C
:10178000959392908F8D8C8B8A89888786858484A7
:10179000838282828181818181818182828283832D
:1017A000848585868788898A8B8D8E8F9192949681
:1017B00097999B9D9FA1A3A5A7AAACAEB1B3B6B8BC
:1017C000BBBDC0C3C5C8CBCED1D4D7D9DCDFE2E521
:1017D000E8EBEFF2F5F8FBFE0104070A0D10141711
:1017E0001A1D202326282B2E3134373A3C3F424401
:1017F00047494C4E515355585A5C5E606264666866
:10180000696B6D6E7071727475767778797A7A7BA0
:101810007C7C7D7D7D7E7E7E7E7E7E7E7D7D7D7CF4
:101820007B7B7A7978777675747372706F6D6C6A7A
:1018300068676563615F5D5B595654524F4D4B4815
:101840004643403E3B383533302D2A2724211E1B8A
:101850001815120F0C09060304FB741B0D299EF5C5
:1018600007D0EC12E9F0F8E200002BECBCF50DED2E
:10187000C7EDA3C727F0F6F8FB07DF0317FA1F121F
:101880000BEDC730FDE0EA1A23FA3CC6DC0E0D3F33
:10189000FEE3EBFE1B0AB50358F516395310F010A2
:1018A00010130D450EE7F209F9E3120CD9E826CE24
:1018B0000945D8E3DF10D9D707C8BDBECAF3FCE796
:1018C00013C7CFF6F62C01C9CD1AF9D3E41A07E0F5
:1018D0001F01D3F4403CF6F0365816F60406150AFC
:1018E00002E80D182F30E156F4F43510F9D1402BF1
:1018F000DC9CE14F03CBFBEFC7400AAC05E493A1AE
:10190000F4E7DBBDE3EF80CED1B6E4EC13D70E1BDA
:101910001D1003F4FC43033AFD46F6E052C821369D
:1019200010F9DB1E04DADFF157EDD0121051170C5D
:10193000D9D305D4F4ADD747D2E5F2AE074EEAA429
:10194000B8FB48DAD12E07F60AE2A41017BDE81A50
:1019500018EB20021B2FB51F3AF4F3D64A35A4F436
:1019600017490EF429FD0498CE2DF0D8B0C9F8130C
:1019700015C3FD32EAFBFED6E3E7FBE1A498F820AD
:101980001E1BCFF1EF1B18295A121703DAEF56046A
:10199000D8C9BA40ECDC10DBFB47CD87A7136CD766
:1019A000EDF9A83D56D9DBFC4A0EB62534FDE5D449
:1019B000D8DC010AEDE3F103F9D90C2EFCF3DFE5E5
:1019C000D8FA18C3C3DF290EC527F20621D3130E98
:1019D000000DE8D7F2FD3CE4BA183D14B7B6F304A5
:1019E000FBE9EB14E90B1AF6B7F012E360E4985741
:1019F00046CDDBD8020FE4E10217E2FD1AE8C32569
:101A00001C06F0E123160CE4D6F5F6D204EBD4253F
:101A1000F8EC0FF8F304FD010EF9F8370BC3E905F4
:101A2000F5CEF8FBE2F8F0DF05E50B14C2F3FCF6A7
:101A3000C93D37DE0997D223DAEDE70321E8DAF072
:101A400025FCFA56E49E0D14FAC60946DF0415EB90
:101A500018F4B02321E4F804EAE810DFFB1C011BB2
:101A6000E7D40D0BD6CA3D09A7CAE9D10B13CECBDB
:101A7000C8F01501E53E09E1FEEFCA094AD8B9C927
:101A800028DE0062E9D8171BF20B151001C10A4EBF
:101A90000FF9E7050BD6F005E003F0E9F4C3C82918
:101AA000F0C2EFE053F5A1E9050EFDDCE8143C0FB0
:101AB00092CBF313E7DC1CFE0C4917B1071A17365B
:101AC00003CEECFEFEDBBF1012DA01E4CE1BF3D234
:101AD000CBE305E4E2FCE3FE13D6F1F8242ECFDCE1
:101AE00014DCBE0BF8F0323CCADFF3F515E5391D06
:101AF0000F260409FBE90AF8BEF12004C8ECDC005B
:101B00005AF59CD91E0DD1C8DCF83609C9C11A3462
:101B1000DCB7DA0407F3D8E8F52E04D61D1D004221
:101B20001ED6E3142EEDE53028E5FCD3EDF0FB27BF
:101B3000CDCBDC07E8BF0D09D7FDF4DC1BFA0604AA
:101B4000D900FD25F1D4031221D3A70025F8F0F91F
:101B50000A2E1FEFF8E2F6F8E31CEBE8FAF00FE7C5
:101B6000F3F5020BC0D41AD9EB16BF2006B2102D24
:101B700013E8F2E2EC00C0214DD6EDFCE5FED7F310
:101B800025FAEF09340CDAF2091727D0EA1DC8FD4F
:101B900009EDE02E06D71FFB23D6E0F4A9E71A13C0
:101BA000EFF1E30F10DBF0FD04E41015B1051FD7D2
:101BB000F6E7F62BFBEB0200141F173AF6CF3EE4D4
:101BC000E205DA16E8EADFF535F1D4FEDCD8F1E912
:101BD00010E4C5FD26E3E7131C1AD1F320F6E1F16A
:101BE000060BF9FEE41B03D301F51A030BD6D93219
:101BF000F5ED3515ED13E9F6E8D20DFDE5EAF5E86A
:101C0000E9F514E3F50CF102E4F22D0AFE1AD8F816
:101C10001A0DE9BAFBF8F4F2C910FE07F5C0E404A6
:101C200013DE15151301EB4AD7D742F2E417F2FE83
:101C3000F9F2EAEA26F0FE31E0F600F2D8D443E405
:101C4000D24315EAFDECDE20F8C230F6CF16F9C219
:101C5000C72C24F912DCF439E312F3E347CDF90D74
:101C6000C1BAD21AFB10F9FE29CDD93805D3F90330
:101C700000E818EDED1FF418120AF52EFCC2FCDC8A
:101C8000FA0A12F5E4031EF9D7131F0CB6E7F8EFB2
:101C900004D7130ADC1227ECF1130EE2071D0E0223
:101CA000C5F4EDED0507420A0BEFE838EDF414EB4F
:101CB000CDF401E902CDD1170410401307EBF6EC87
:101CC000D007DC05EDD21CFD050EE71F150C35DB3A
:101CD000DF000AF3E41C06ECFA07E7D81E32F8EB43
:101CE000C6102DD2ECE8E1FE09F51A34E3E32C0D21
:101CF000E90718F5F0EDCB010ECFED122121FBF92C
:101D0000FC00F3F120E10218D9E1F0021620FB06F5
:101D1000F90EFCF3FD060E0216F009F8F0E1EC1BDB
:101D2000F80204E50105D0F3F5D6DCE00502E3F0A6
:101D3000F510070E141534F8D8FAFDED201A030B30
:101D4000DAEC0F121C1A1507FA0318F5D1F214F485
:101D5000ECEF04FEDED6D3101B0FEFFE02D8F3002B
:101D6000F615FBD81D230AFA0F14D8ED03F2FB1E5B
:101D7000F5DAEA011805030A1DEF062DF21323FC1C
:101D8000DF09FDFD05E2060A12F4EB1A00F201E29A
:101D90000121F8E4ECE7E90516F60FF3EB02F3F4A2
:101DA000CB0705EADEF9291603F902F91F0C0636FE
:101DB0001DFCEF12FDC2F828F6EFF40A14EDF80B43
:101DC0000E0B07DCF003E709F906F40105D40B025A
:101DD0000A13E8F2E8EB26E3E721F81515EB0427F0
:101DE000FCFD090106F906E30402ECFAE3FD0AEF43
:101DF000F814060607F4EFFA0EFE070DDAF402EF08
:101E00000A0B02FBDADFFD0E0DED1C0AE91300FBE5
:101E1000072B0A07F5FB0AF618EAEA1207ED040396
:101E200003041FFCEC10DE0EF5F00FECF6E00309E6
:101E3000EB12F6E0010B01E70D14FC02030E04F2B5
:101E40000E2B05DE012406E3D8152300ECE9FDFC8A
:101E500006F9F923100902E8030DF6FB05DEFC2163
:101E6000F8E8F3130A01E2FA13ECF6ECFAFBEDF4EE
:101E7000FD2017EC131BFAF4EA103904EB07FCFA07
:101E8000100D130F0301F51BF500FDDC06F4FCF249
:101E9000FEFAFBFAE91413E80607CDF209010BFB81
:101EA000E91410FB0605FB0316D8FB37FAF8F3F527
:101EB0000F031010070013FCF516031E040CFBE1C2
:101EC00005FCFADF0907FD0DECF9FAE3020B05F555
:101ED000E912F4EAEF0F27E8F903FA1603EF01FE1F
:101EE000020606090C04F609090214120305140C73
:101EF000F303E8060C0117FE04FDF3F0F9FA18FAF3
:101F0000EDEBE009F9FEFDF90B14FAEB0603F81707
:101F100004E0FC200FE8F0001F1B06FA04070D0286
:101F2000E20A1A02FB12F8F2EFF003F6F5151405B7
:101F3000F3F315F3E9F21B1BFDFCFA03F6000B1299
:101F400003050901E5ECF1F905FD0EF317FBF31D9F
:101F50000012FBFC06FB0BF4FC0A051DF40512FD48
:101F60001CF1E4FD011C0FF600F4F604EDEF1A0479
:101F700007FEE4000304DFF00C171FF9E2F40E047F
:101F800009051B1800F1EBFCFA100E00FE0706FA1B
:101F900003F50A02F0FE0A1000EBD91312ED100946
:101FA000FC0CF3EB05F40C1B05030C04F9FBF20924
:101FB000050C13F006FBF6FCEA0B040301FB05EB32
:101FC000FE07FA0402FC211AE8FE04F912140003C9
:101FD0000B090BF8EF03FDFD00F0FD0CF3E105210B
:101FE000000918F003F5E802FB04120EFE0CF1FBE9
:101FF00009E50A160A051401FE0DFDF80F1702F196
:10200000E104EFEBF0F810FE041204DFFB00F91F0F
:10201000060415F4F40906FC1D10F904E5FE0DF89C
:102020000706F81415F2E4FAFC030C03010218F990
:10203000F3F5FD0A05FCF815FE0103F9FC07160C83
:1020400005FCF901F3ECF4012C0AE9020D0EFCF495
:10205000F8131BF9F80BF8F6170F02010902F6ED59
:10206000F213FEE4151503EFE7060A05F8F30A1765
:10207000FD09F8F10D0110F8F40DFA0C05F8070A46
:102080001E1A050303FEF6F50514FE1605E8FC030B
:1020900005EFF9EDFD0CE5E2F01510F8F6020E067D
:1020A0000302EB01200B04F8031A05ED031F0BF3E9
:1020B00005150D04F4F802FD1307F3FEFC02FCF411
:1020C000F8131A03F9F2030501E4F4030412F6FE0F
:1020D000FDFCFD01050F09FCFBE1FA0E0E04FE04F8
:1020E000F90F0B04040C0B05070D100C06F1FBF4A3
:1020F0000007020BFC0AF5F2140E00F9FEFE05F0D3
:10210000EAF8F0F901050AFE031200EC010EFA01EB
:102110000DF9030A0D0D090904020105EAFC161365
:1021200007F6FDFC03F4FA1303FBFD02050507FAAD
:10213000E9F1001203FA0AFBFBFC0C090B24060070
:1021400001F9FEF8F9FDFB030D0603F30306F8079A
:10215000030606F2F1040A030A13FAFE0EFA09094D
:10216000FAFA0709FB01EA0001F102000703120B6A
:10217000FAFBF80D03030E06030604F8F30D0F0E29
:102180000DF802F9F4040A05FA1307F502F307053E
:10219000F40202EF000DF0F3FB01FC0606F8FC0070
:1021A0001205F905170EFCFD1203010D0003090BC2
:1021B00006F0F00EFD020703030301F2EFF80CF93D
:1021C000FC090904EBF20004041201FC0AF5FC0A04
:1021D000FD091709041406F90504F3FA060509EFC9
:1021E000F90EECE90405050C0209FC0214FD010AD4
:1021F0000C0704FBF9F00613FAFBFD090BFAEAFDE4
:102200000506000309F10403F906020E13F4FA02AD
:10221000F30904FC07090AFD00050007FCFE0D0A8E
:10222000050CF4F004FCFD0001FEFCEDFE0DFA00CF
:102230000E0F040509FEF4FC100AFC0B1309F2F35F
:1022400004FA0402FD00F80903FBFDFD1003010D73
:10225000020307F8F30A06040CFBF400FA0300FE7D
:102260000D090CFE050AF50901F810010115F4EC41
:10227000FE0705F80601F1EDF906FAF9100E000C5B
:102280000EFDFC030A07FE000E0CF8F4FD020B0520
:102290000B0AFAFD0202FAFD0E03FD06FB0003F134
:1022A000010A000200FA0501F5030A030006F80618
:1022B00001FD0D020AFE0AFDF209F8FC01030C06FD
:1022C0000CFAEDF4051001030B0E0A0300FBF505F3
:1022D000060310FC040EFCF4FC000706FCFCFBF6F5
:1022E000F802FD0405FBF90D07F50AFDFE00FE10DE
:1022F0000403FEFE05F9030B031000F9060404FBBA
:102300000712FBF8FBFA09FBFA060201090500F8BF
:10231000ED020904060C0601F8F803060B0709FC98
:10232000000AFCF604F5FB05FC020400F8F90409B8
:10233000FE0601FBFC020BFBFA01060B03F80B0186
:102340000202FA17090406F0FB07070C070DFEFD51
:1023500002F80602FE04FC0201FDFAF4F8FD0C008E
:10236000FE0C04FDF9FD0206040404FEF9FE04FE61
:102370000603FE0E05F80401FE00020F0402060229
:10238000FCFA050C050406F802FAF403FB0606FE47
:10239000030403FCFA03041204F10203F9F5020535
:1023A000FD02F4FA0AFEFD0001FE060A0406FE0420
:1023B00007010B0E020501FD0303FD0107FE09FEE7
:1023C000F9FDFD09FCF8091005F8FBFEFEFCFD0215
:1023D000FD0203F50007F1FA0C01040101FEFE0401
:1023E000030E0203050307FE0404020101010303B7
:1023F00005F9FC0D02FE000604FE00FC0601F405D2
:1024000000FC060001FBFA0705000405FCF3050AC1
:10241000FB00FDFD0704FE0503FE01FA0105FDFEBC
:10242000FD0002000604010A040602010D06FE007A
:1024300000050400FC02FBF907000407FEF6FB039D
:1024400001FEFA050400FC0704FD030505F2FE0A7F
:10245000FE02FEF5000B01F80B09FB07060204055E
:10246000FE0603F905FD00FDFD050203FBFEFC056C
:1024700006FC020005FDFA01050BFD010A0000053E
:102480000000FEF20407F8000400F6FC070406054D
:10249000FC050603F8FE0BFD010101050000030326
:1024A00007FDFE0DFEF9000405FEFB010600FB0121
:1024B00002000401F8FE00F5FE0002FE0007010222
:1024C0000305060100090A000100FC0401F9FE09E8
:1024D00003FA0504000601FC0700FD04FC01FBFEF5
:1024E000040602FCFDFEFBFD02FE0500FAFE0307EA
:1024F00005000500FD0A0605FCF5FE0504FA0107C6
:10250000FBFAFE05040504FE070200030400FC02BA
:102510000402FD0A01F5FD01020406FAF2FC04FBC7
:1025200000FE0504F90402FDFE0602FE05FDFC04A2
:1025300003FE0103010407010303FD05070201FE79
:10254000FE000AFDF50300FBFB0103FEFEFAFC049E
:10255000FE0106FDFEFE030C06000204FCFD030165
:10256000000401FD05020302FB0102000606000251
:10257000F8FB0906FBFD03FEFB000302FEF9020364
:10258000FD00010400FE020002000100FAFD03FE4E
:10259000FB04020001FE010106060201020A050514
:1025A000FEF80907FD000603FDFE00000305FEFB23
:1025B000FEFD0103FC00FEFAFDFB0004FDFC00FB38
:1025C000FB010304FB030503040309FEFA050C05E4
:1025D000FD01010309010001FC0202FD000101FEF1
:1025E0000100FB0400FC02FE0101FD00FDFDFDFEFB
:1025F000050100FDFD0300FE0302FE02FEFE0604CF
:1026000002FBFB030304030303FC0306FD020601B4
:1026100002FCF902020505FDFC0201FB0102FDFDC1
:1026200000FD0000FBFD0200FB040201FDF90203B6
:10263000FE000202040301020604FD030504010179
:10264000040200FE0101000200FEFDFD020101FD89
:10265000F80102FEF6F60509FEFB01FE0102FDFD92
:1026600004020101FB000203030400030A01FE034C
:10267000030405F8FB06040300FEFD0102FEFD0055
:102680000201FDFB04000007FBFB010200FB00024E
:1026900001FCFB0304FCFDFE000201010103030138
:1026A000FE02010000010201030501000102050410
:1026B000FC030301FCF9030301FEFEFEFE00FDFE28
:1026C000FCFE000000FBFC0406FEFD020103FEFC14
:1026D0000304010101FE0403FC00FE0000020600E9
:1026E00000FE0103000101010001FEFD01FCFD03EC
:1026F00004FEFCFE0004FEFB00010100FBFB0401E4
:10270000FE0401FE030102020002020100040100B6
:1027100002FE020502000003010102FDFEFEFD03B0
:1027200000FDFEFEFE0202FD0001FBFBFEFEFE00C0
:10273000FE0000FD01020402FDFD0404000101038E
:10274000010204010603FE0000010100FDFE01FD7F
:102750000101FEFE0002FEFE00FE00FE00FEFD0284
:1027600001FEFEFDFB01060000FEFE0202FDFC0173
:10277000000301FD0301000404FE0102FE00FDFE52
:10278000020202FEFE020201FDFE02FC0101FC004B
:1027900000FE00FD000201FEFCFC00020300FE033F
:1027A000010102000202FEFE01020000FDFD000127
:1027B0000202000002FDFE010100FDFDFDFEFEFE25
:1027C000FEFC010401FCFE060301FCFD040300FA0B
:1027D000FE020303000300010200FDFD0100FEFCF8
:1027E000FD0402FEFE00020200FE000100FDFAFEF2
:1027F00000FE01FE0100FE0002FE01040002FCFCDE
:1028000002FDFC03020201FC00030202FE000001C3
:10281000FEFC0001010200FE0104020000FE00FEB9
:10282000FEFEFCFEFEFEFEFE020300FBFE0203FDBA
:10283000FD010100FE00FE00000002000103000097
:1028400002FE010000010101FEFE0103010100FE84
:1028500001FEFDFEFE01FEFCFEEC00008A0000D041
:10286000003A1CAE0068003A000A420008E8000086
:10287000260094000EC60072009A62F422A06CC07A
:1028800018A062E414A05CC22CF60A580ED60A3EC8
:1028900008FA08280EC60EA07810BA2C34E60C747C
:1028A00012169A0A12F658483A8882DC4082789CBE
:1028B000208070DC207E6AB858E00062000044008E
:1028C000C60088AE002E1C740C005E0000E0A01450
:1028D0002200340000C2001076E4688A5A7A666CDE
:1028E0004CC4A0B6A06024CA16F0CC2A00566C4294
:1028F00068BE16E0000E9400240000703EE8B400AC
:102900002200301A12D6128A26E8BAE0B66C3C5081
:102910003E8E2A1822880EAA1AE40E24184A367A05
:102920001ABA0E6022121E300C02002E26E200445B
:102930000002005C1EE8A67416400CEC80A01ECAC3
:102940004A441CE478A01CBC52EC180E3600006A05
:1029500000CADC00B200A08C08865272A0E000160B
:102960002C42280000C0160E9EAE56E63A7C40D29D
:102970003AA04CE0167C22C21AEC00E2000000A053
:10298000000000BC000000D2001ABC003EF2660845
:10299000A016D80030C8701E16E6D4DEE4B40E725D
:1029A00020A026420C9A165824E2002A004200E297
:1029B0000EEE007E00540AAA1600003600B6008013
:1029C00024060A540AEE089E1AF02EDA18E800606F
:1029D00000F01CCC1ED6004000E400D4000E00D64F
:1029E00000A034DA000000862068001654E61600C5
:1029F0003A06008A14DC12B022E61A3418521C344B
:102A0000769A1A3418CAD4BAC464756D6D7900E820
:102A1000F4000C18F4FDFBF8F600020407090CF4AE
:102A2000F5F8F9FBFCFF0001040507080B0CF4FBAB
:102A3000FEFF000102070C0C050B0F09F00021023C
:102A400000080F1C18802100FF023C0000001E55EA
:102A50005355530000000A0B0C0D0E0F10111213EA
:102A6000000308092B2B15161718191A1B1F201CF9
:102A7000000308092B2B2123242529222627282A75
:102A8000000308092B2B000000000000008080805C
:102A9000000000408080800000000060A000000076
:102AA00000000002040507090B0C0E101113151786
:102AB000181A00007800000000000000000080FFED
:102AC00000000000000000000000043C3C3030002A
:102AD00000000000000000000000000000000000F6
:102AE00000000000000000000000000000000000E6
:102AF00000000000000000000000000000000000D6
:102B000000000000000000000000000000000000C5
:102B100000000000000000000000000000000000B5
:102B200000000000000000000000000000000000A5
:102B30000000000000000000000000000000000095
:102B40000000000000000000000000000000000085
:102B50000000000000000000000000000000000075
:102B6000000000000000000000000001000404025A
:102B70000008060101000000000F0F100002000114
:102B80000000000800010004000202002517611C7B
:102B9000C31C361F18217421CA21EF238925A631B1
:102BA0008D38C41C371F7521A7318E3811241FBEE4
:102BB000CFEFD8E0DEBFCDBF11E0A0E0B1E0EEEF97
:102BC000F9E702C005900D92AA36B107D9F716E0D1
:102BD000AAE6B1E001C01D92A03AB107E1F71BE2FD
:102BE000C2EADBE204C02297FE010E94CC3CCC3852
:102BF000D107C9F70E944C190C9400160C940000E0
:102C0000F8940C94F23CFB01DC0102C005900D929B
:102C100041505040D8F70895FB01DC0102C00190FB
:102C20000D9241505040D8F70895DC0101C06D93DA
:102C300041505040E0F70895A0E0B0E0E2E2F6E154
:102C40000C949D3C7C01EB018A01690109C0CE0115
:102C50002196F6010995F70181937F0101501040FB
:102C600001151105A1F7CDB7DEB7E8E00C94B93C2A
:102C7000A0E0B0E0EEE3F6E10C949D3CEC017B01BA
:102C80008A01690109C0CE012196F70161917F0196
:102C9000F60109950150104001151105A1F7CDB7B6
:102CA000DEB7E8E00C94B93C8FB7F89420916A0144
:102CB00030916B0140916C0150916D018FBFB90152
:102CC000CA0108959C01F999FECF32BD21BDF89A41
:102CD00080B508959C01F999FECF1FBA32BD21BD80
:102CE00060BD0FB6F894FA9AF99A0FBE08951F9234
:102CF0000F920FB60F9211242F933F934F935F9330
:102D00006F937F938F939F93AF93BF93EF93209194
:102D1000860030918700E091760160917C0170918E
:102D20007D0130937D0120937C011092760180918A
:102D30002E058F5F80932E05893040F140E050E0F2
:102D400080912A0590912B05A0912C05B0912D051D
:102D5000280F391F4A1F5B1F8E2F90E0A0E0B0E0C4
:102D6000DC0199278827280F391F4A1F5B1FCB01D9
:102D7000A0E0B0E0281B390B4A0B5B0B20932A051F
:102D800030932B0540932C0550932D05EF91BF9167
:102D9000AF919F918F917F916F915F914F913F91F3
:102DA0002F910F900FBE0F901F90189578941F923F
:102DB0000F920FB60F9211248F93809176018F5F3F
:102DC000809376018F910F900FBE0F901F901895F2
:102DD00078941F920F920FB60F9211242F933F9366
:102DE0008F939F93EF93FF93809183019091840140
:102DF000019690938401809383012091A9013091E1
:102E0000AA018217930748F08091AB018F5F8093EE
:102E1000AB01109284011092830180917B01E82F15
:102E2000F0E0E450FA4F90818F5F8F7780937B01C1
:102E30009093B400FF91EF919F918F913F912F91CB
:102E40000F900FBE0F901F9018951F9310926F0157
:102E5000109273011092740180913B0520913C0502
:102E600030913D0540913E0560913F05E091400560
:102E7000A091410510914205B82FBF5F91E0B817AE
:102E800008F090E0F92FF20F81E0F21708F080E0EF
:102E9000782F730F81E0731708F080E0582F540FDC
:102EA00081E0541708F080E0382F360F81E03617A4
:102EB00008F080E0282F2E0F81E02E1708F080E028
:102EC000982F9A0F81E09A1708F080E0810FB09355
:102ED0003B05F0933C0570933D0550933E053093C0
:102EE0003F052093400590934105809342051F9133
:102EF0000895AF92BF92DF92EF92FF920F931F93CC
:102F0000CF93DF93182FD92EEB017A01590122E6D6
:102F100036E10E941C16F999FECFCE0DDF1DD2BD01
:102F2000C1BDF89A40B5812F9D2D9C01F9019701F3
:102F300090E004C08191980F215030402115310557
:102F4000C9F7491711F4002331F0812F9D2DB501E8
:102F5000A7010E940316DF91CF911F910F91FF905F
:102F6000EF90DF90BF90AF9008951F93BC01FC01DC
:102F700010E02FE030E002C08191180F2150304066
:102F80008FEF2F3F3807C1F788EE93E04FE050E016
:102F90002AE636E10E943816F999FECF1FBA87EF6C
:102FA00093E092BD81BD10BD0FB6F894FA9AF99ADC
:102FB0000FBE1F9108951F93182F80918A0280FFE2
:102FC00006C0812F60E070E040E00E94AD20812FBC
:102FD0000E944D231F9108951F93CF93DF93182FC5
:102FE000EB0180918A0280FF03C0812F0E94AD20F7
:102FF0008091F501882399F0812F807F803979F4C1
:10300000912F9F70993059F0888180938C02909312
:10301000890289E892E00E94B5171092F5011939EA
:10302000A9F488816981660F09F1843211F480E086
:1030300007C0863211F481E003C08A3219F482E0BD
:103040000E944B1F81E08093F60110C0193B29F4C8
:10305000888169810E940D1D09C01F3939F498814A
:103060008981880F19F0892F0E94E230DF91CF917A
:103070001F9108958091FA02883240F40E94993499
:103080000E945F350E94B4350E94BB2F08950F93B4
:103090001F93CF93DF93EC01962F162F107F062FEF
:1030A0000F70103F09F499C080918902081709F444
:1030B00094C0BE016F5F7F4F892F4C8120E00E943A
:1030C000EC178FC0973F41F0BE016F5F7F4F892F94
:1030D0004C8121E00E94EC17103B01F1113B40F4C0
:1030E000103979F0103AC1F0103809F07AC010C0E8
:1030F000103EF1F1103F09F448C0103D09F071C0D5
:1031000033C06A81662321F089810E945F3669C0DD
:1031100089810E94F03565C08A8127C089818B37FB
:10312000A9F08C3740F4893771F08A3708F059C01C
:103130008837B1F405C08C3761F0803888F451C00D
:103140000E9491354EC00E941D374BC00E94CA3567
:1031500048C00093890289E892E00E94B51741C0F7
:103160006A810E9450373DC089810E94223739C050
:103170008A8190E09695982F882797958795298141
:10318000820F911D0E9428372CC0083091F0093021
:1031900018F4002351F025C00A3099F00A3008F1E4
:1031A0000B3079F00C30E9F40FC089810E94DB17F5
:1031B00018C08091FA028832A0F481E00E94BA34EB
:1031C00010C00E943A180DC08091FA02883248F46B
:1031D0000E949A350E948F3404C0903F09F072CF4C
:1031E0007BCFDF91CF911F910F910895CF93DF9304
:1031F000EC01683F18F00E9447184BC067FF34C0CD
:103200001C8281E08D83862F807F803AA1F0813AF5
:1032100028F4803881F08039A1F40DC0803E59F047
:10322000803F19F0803B69F406C0962F9F70892F6C
:103230008150823018F482E08D8303C0943008F00E
:103240001D82673F41F48881803F19F487EF0E9417
:10325000DB17188210C0603F29F4688380EF0E945A
:10326000DB1709C0688307C08C81FE01E80FF11DE0
:1032700061838F5F8C839C818D81981750F0CE0184
:1032800068810E9447181C828881813F10F01D824E
:103290001882DF91CF9108950F9378941092C10016
:1032A00084B714BE809160008861809360001092A2
:1032B00060008091C0008D7F8093C0001092C50097
:1032C00087E28093C4008091C10088608093C10030
:1032D0008091C10080618093C10089E892E068EE2E
:1032E00073E04FE050E027E43AE200E00E947917F3
:1032F0000E94A81F0E94F23710922905259A239A4E
:103300002498229A2A9A229A2A9A8DB58E7F8DBD68
:103310008DB581608DBD80E58CBD219A579A229A2A
:10332000209828980E94B3275A985A9A20E038E0AB
:10333000220F89B190E0B5E096958795BA95E1F7AF
:103340008170282B5E9A5E98315091F722FD11C052
:103350000E94F43189E892E068EE73E04FE050E0BB
:1033600027E43AE201E00E94791789E892E00E949E
:10337000B51785B5887F826085BD84B58C7F8160F7
:1033800084BD80916E00816080936E008091B10059
:10339000887F81608093B1008091B0008C7F8160D4
:1033A0008093B00080917000816080937000539A88
:1033B0008091B00080628093B00081E080938000B3
:1033C00082E1809381008091800080628093800000
:1033D000809177018093780181EB93E00E949A2F8E
:1033E00080911605882309F496C08091FE028230F0
:1033F00090F48091FF02823070F48091000382305B
:1034000050F480910603882331F485C08091EF0148
:10341000882309F486C00E944E1E0E94381F615EF8
:1034200073498440904010F01092F6018091FA02A6
:10343000883208F449C04091A701E091A901F091B8
:10344000AA012091A6019091A5013091A80100E068
:103450001BC09F5F963071F42F5F203109F420E08C
:10346000E22FF0E0EE0FFF1FEB57FE4F0190F081CF
:10347000E02D90E03F5F341710F00F5F30E0809157
:10348000AB0181508093AB018091AB01882309F798
:10349000F093AA01E093A9012093A6019093A501BE
:1034A0003093A80104C080E00E94BA340150002388
:1034B000D1F7109275011CC080E00E94BA3480914F
:1034C0007501815080937501809175018823A1F762
:1034D0000FC080917901E82FF0E0E55BFA4F608141
:1034E0008F5F8F71809379018FE691E00E94F618CB
:1034F00080917A0190917901891B8F7151F70E9417
:103500008F3880917601813218F085E0809329050B
:103510000E94572761CF8091F601882309F07BCF65
:1035200075CF0E943E1D79CF78941F920F920FB6EF
:103530000F9211240F931F932F933F934F935F93F9
:103540006F937F938F939F93AF93BF93EF93FF936B
:1035500080917E0180FFB6C080917C048823B1F405
:103560009091CA04E92FF0E063E0EE0FFF1F6A9527
:10357000E1F7A2EAB4E0E655FB4F88E001900D9236
:103580008150E1F79F5F93709093CA048091A204E9
:103590009091A304906129989EBD0DB407FEFDCFC4
:1035A0008EBD0DB407FEFDCF299A8091A60490919F
:1035B000A704906929989EBD0DB407FEFDCF8EBD6E
:1035C0000DB407FEFDCF299A2091A8043091A904DB
:1035D000C90190615F989EBD0DB407FEFDCF8EBD01
:1035E0000DB407FEFDCF5F9A8091A4049091A504CD
:1035F00090695F989EBD0DB407FEFDCF8EBD0DB4E2
:1036000007FEFDCF5F9A232B09F454C0E091880494
:10361000F0918904E050F84002C0E050FA4FF7FD05
:10362000FCCFCF0160E076E00E94643CA62F20E052
:103630003AEFA901649F9001659F300D749F300D92
:1036400011242E0F3F1FC901969587959695879552
:1036500096958795969587952F7040E1249FA001B8
:103660001124880F991FFC01EA53F74F659174915B
:10367000FC01E853F74F859194919B01281B390B6E
:103680009927249F812D349F800D911D1124681B43
:10369000790B02C0BC01A150CB0196958795AA2356
:1036A000C9F7709389006093880090938B00809392
:1036B0008A0008C0109289001092880010928B0036
:1036C00010928A008091C00087FF15C02091C6002B
:1036D0008091790190917A018150891B8F7159F005
:1036E00080917A01E82FF0E0E55BFA4F20838F5F4D
:1036F0008F7180937A0180917F0190918001891B65
:103700008F7081F08091C00085FF24C0809180017E
:10371000E82FF0E0E559FA4F90818F5F8F7080932A
:10372000800116C08091810190918201891B8F7761
:1037300089F08091C00085FF0DC080918201E82F43
:10374000F0E0E558FA4F90818F5F8F778093820188
:103750009093C6005A985A9A10E028E0110F89B148
:1037600090E005E0969587950A95E1F78170182B12
:103770005E9A5E98215091F717FF09C0809103016E
:1037800087FD05C0809175018F5F809375018091E1
:10379000030116FF07C086FD0BC081EB93E00E947A
:1037A000652A06C086FF04C081EB93E00E94BF2A11
:1037B000109303010091980280916D04833028F4E6
:1037C00080917E04882309F4006410927E04809125
:1037D000CD04882321F0006881508093CD0480912E
:1037E0007E0190E087709070892BE1F590916E01D9
:1037F000892F8A5980936E018D37D8F09751909315
:103800006E0180916A0190916B01019690936B011A
:1038100080936A0180916A0190916B01892B49F430
:1038200080916C0190916D01019690936D01809350
:103830006C01E3E4F5E050E84081440F4083852FBC
:1038400090E0212F30E082239323892B11F04160F7
:103850004083319685E0EB34F80711F05695ECCFB4
:103860000E946F245A985C9850E848E05E98852F33
:1038700090E0202F30E082239323892B11F05C9A73
:1038800001C05C985E9A415011F05695EFCF5E985A
:103890005A9A80917E018F5F80937E01FF91EF9114
:1038A000BF91AF919F918F917F916F915F914F9158
:1038B0003F912F911F910F910F900FBE0F901F906E
:1038C00018950895A0E0B0E0E8E6FCE10C94993C7E
:1038D000962EE42E822E90E0A0E0B0E0880F991F93
:1038E000AA1FBB1F9C01AD01220F331F441F551F90
:1038F00084529440AA4FBF4FBC01CD010E94783C36
:103900005901B901882777FD8095982FFF2400E0A1
:1039100010E0A80197010E94453C6B017C01E92D54
:10392000F0E0EE0FFF1FE15FFE4F00811181C5E85F
:10393000D1E0F80165917491882777FD8095982FE3
:10394000A70196010E94453CBC01992777FD9095FF
:10395000892FC501860F971F899399930E5F1F4F7B
:1039600081E0C53AD80729F78091850190918601B9
:103970009093AA018093A9018092A701CDB7DEB7E9
:10398000ECE00C94B53C089508951F93CF93DF931A
:10399000E62F90E0162F110F110FE295E695E695B0
:1039A000E3709C01220F331F220F331F280F391F92
:1039B000E20FF0E0EE0FFF1FDF01A45DBE4FCD91DF
:1039C000DC91E25DFE4FA081B181AC01440F551F37
:1039D000480F591F440F551F44555E4F60E070E07B
:1039E000FE01E60FF71F3491FD01E60FF71F24914A
:1039F000219FC0011095319F1095800D911D1124BC
:103A0000FA01E60FF71F90836F5F7F4F65307105F6
:103A100039F7DF91CF911F910895E82F80518F30B2
:103A200048F4F0E0E252FF4FE491F0E0E455FE4F3D
:103A3000660F60830895809590E063E09595879583
:103A40006A95E1F78093EB010895982F87FD07C0F1
:103A50008FEF8093B101990F9093B70107C0990F31
:103A600090959093B1018FEF8093B7018091B7014A
:103A700090E0959587958093BD0108959091ED0113
:103A8000992371F08091EE01882321F08150809379
:103A9000EE0106C08FEF8093EE0191509093ED01FF
:103AA0002091ED010BC08091F401E82FF0E0E4508B
:103AB000FA4F20838F5F8F778093F40180917B0191
:103AC0009091F4018150891B8F7769F70895FF92D7
:103AD0000F931F93CF93DF931092EF010CEA11E045
:103AE000A0ECB1E0FF2418962D913C911997169601
:103AF0008D919C911797820F931F17969C938E938D
:103B000016978217930750F48FEF9FEF17969C93A9
:103B10008E93169719961C921E92189716968D9151
:103B20009C91179726E536E1F901E90FF11D882FE1
:103B300025911590819DF0018095829FE00DF11DEA
:103B400011242F2F1C964C911C97429F412D11241C
:103B50001A964C931A9714962D913C91159712969C
:103B60008D919C911397820F931F13969C938E9324
:103B700012978217930750F48FEF9FEF13969C9341
:103B80008E93129715961C921E921497F801D0816D
:103B9000C0E0FF20D1F48091010190910201AC01BD
:103BA00041705070509541955F4F4070547B969591
:103BB000879548275927509302014093010124819A
:103BC000529F90011124C20FD31F12968D919C9188
:103BD000139726E536E1F901E90FF11D882F2591AC
:103BE0001590819DF0018095829FE00DF11D1124BB
:103BF0002F2FF8014281429FA00111244C0F5D1F1D
:103C0000852F9927880F991FFC01EC53F94F659177
:103C10007491FC01EA53F94F25913491261B370B1F
:103C20009927249F812D349F800D911D1124860F8B
:103C3000971F11969C938E9318968D919C9119972E
:103C4000892B19F081E08093EF01F3940A5F1F4FF5
:103C50001F96F3E0FF1609F046CF3091D90120916D
:103C6000B601329F812D11248093DA012095329F75
:103C7000312D11243093D9018091DE019091DF0123
:103C8000E6E096958795EA95E1F79093DF018093BA
:103C9000DE01CDB7DEB7E5E00C94BC3CA7E0B0E0B8
:103CA000E4E5FEE10C94933C3090ED015090EC0182
:103CB000C8C00E94671D70900201E090BE01F090A4
:103CC000BF01A090CD01B090CE018090DC0190901A
:103CD000DD016091C0017091C101A091CF01B0914F
:103CE000D001C090DE01D090DF012091CA012C8369
:103CF0003091D9013B838091DA018A839091E80168
:103D000099832090EB01A701BE82AD8284014424F7
:103D1000539489E4789E702C11247394460F571F96
:103D2000ED81FE81EA0FFB1FFE83ED830C0D1D1D4F
:103D3000E52FFF27E95AF84E85919491292F281BEA
:103D40002403212D1124280F3C812303912D1124BC
:103D50002D813E81E32FFF27E95AF84E24913B81C4
:103D60002303812D1124272D3A812303612C112453
:103D7000F801F695E795F695E795F695E795F695AA
:103D8000E795E85AF74E249139812303312D112408
:103D90003F83251428F5292F332727FD30959927B0
:103DA00087FD9095280F391F20583F4F862D992762
:103DB00087FD9095280F391FEF818E2F992787FD5A
:103DC0009095280F391F2F3F310521F01CF02FEF60
:103DD00030E004C037FF02C020E030E0322E55242E
:103DE0008091F401E82FF0E0E450FA4F30828F5FC9
:103DF0008F778093F4014394F0E24F1609F088CF57
:103E0000F5E0660F771FFA95E1F7E60EF71EF092E0
:103E1000BF01E092BE01E5E0AA0FBB1FEA95E1F702
:103E2000AA0EBB1EB092CE01A092CD0175E0CC0CC3
:103E3000DD1C7A95E1F78C0C9D1C9092DD0180923F
:103E4000DC0180917B019091F4018150891B8F7777
:103E5000803208F02ECF3092ED015092EC018FEFBE
:103E60008093EE012796E2E10C94AF3C089508950B
:103E70000E9454169B01AC018091F0019091F101D8
:103E8000A091F201B091F301281B390B4A0B5B0B97
:103E9000B901CA010895FF920F931F93CF93DF9347
:103EA000082FF62E0E9454166093F0017093F101D2
:103EB0008093F2019093F30110E0D80184E0AA0FFF
:103EC000BB1F8A95E1F7A01BB10BA254BE4F119600
:103ED0001C921E9215961C921E92149719961C9273
:103EE0001E921897E801CC0FDD1FC00FD11FCC0F19
:103EF000DD1FC455DE4F8981482F50E0440F551F08
:103F000024EC34E0420F531FFA01859194911796E7
:103F10009C938E9316978B81482F50E0440F551F2A
:103F2000420F531FFA01859194911B969C938E9397
:103F30001A972D813F2D329F612D11241E966C936F
:103F400081E08093EF01CDB7DEB7E5E00C94BC3C97
:103F50008DE2EEEBF1E0DF011D928A95E9F708951D
:103F60000F931F93CF93DF93EC018A89E82FF0E042
:103F7000E830F10508F0D3C0EC5CFF4F8C819D81E7
:103F8000AE81BF810C94CA3C9C01AD016FE0569597
:103F90004795379527956A95D1F7B7FF02C0B901C4
:103FA000BEC0B90114C08827B7FD83959927AA27F9
:103FB000BB2766277727681B790BB1C0CD01AA27DD
:103FC000BB27BC01ACC0CD01AA27BB27BC016095B3
:103FD0007095A5C08B898823A9F1209101013091AA
:103FE0000201C90181709070909581959F4F8070FA
:103FF000947B36952795822793279093020180938F
:1040000001011EC08B898823E9F0209101013091C4
:104010000201C90181709070909581959F4F8070C9
:10402000947B36952795822793279093020180935E
:10403000010180FD03C080E090E002C08FEF9FEFA0
:104040009B878A876A857B856AC08B898823D1F0A4
:104050008C859D859B878A87209101013091020183
:10406000C90181709070909581959F4F8070947B6D
:10407000369527958227932790930201809301011B
:104080009D878C874A855B852C853D858C819D81AC
:10409000AE81BF81CD01AA27BB278C0142175307F0
:1040A00098F4241B350B8827209F912D319FB00158
:1040B000129F900D611D781F309F900D611D781F1C
:1040C0001124640F751F2BC0CA01821B930B9C0126
:1040D0006627209F712D319FC001129F700D811D99
:1040E000961F309F700D811D961F1124BA01681B09
:1040F000790B15C080910101909102019C01217002
:10410000307066277727621B730B6070747B9695FF
:1041100087956827792770930201609301012881B0
:1041200039814A815B818C819D81AE81BF81820F03
:10413000931FA41FB51F8C839D83AE83BF83E0E0D4
:1041400082179307A407B50708F4E1E0EB8BCB01D6
:10415000DF91CF911F910F910895DB019091810123
:10416000E92FF0E0E558FA4F80839F5F9F779093A7
:1041700081014423D9F080918101E82FF0E0E558D6
:10418000FA4F9C9190838F5F8F77809381014130AC
:1041900069F080918101E82FF0E0E558FA4F11961F
:1041A0009C9190838F5F8F77809381010895282F52
:1041B00080918201909181018150891B8F77C1F399
:1041C00080918101E82FF0E0E558FA4F20838F5F5E
:1041D0008F7780938101089590917F01EBE6F5E060
:1041E000E90FF11D80839F5F9F7090937F01089579
:1041F00090918101ABE7B5E0FD01E90FF11D8083EE
:104200009F5F9F779093810180918101FD01E80F6D
:10421000F11D60838F5F8F77809381018091810191
:10422000A80FB11D4C938F5F8F7780938101089504
:104230000895FC0192819923D9F09330C9F094300C
:1042400031F4E62FF0E0EA5AFA4E649111C083810E
:1042500024812F5F281B269F612D1124680F953024
:1042600039F46F3E10F060EF03C0683208F460E08C
:10427000862F08950F931F93CF93DF93EC01062FA2
:104280008A81882371F0833061F010E0CE01612FC4
:104290000E941921801721F01F5F1F3FB9F702C04C
:1042A000012F602F862FDF91CF911F910F910895DD
:1042B000843710F08FEF0895E82FF0E0E85BFE4FB1
:1042C00084910895FC018081882329F4E181F0E044
:1042D000EF54FC4F06C0813031F4E181F0E0E8504A
:1042E000FD4F808108950895089508951F93CF93F9
:1042F000DF93EC01462F8881882359F58A8183302A
:1043000021F5E62FF0E0EA5AFB4E149117FF0DC09D
:1043100081EB93E0698140E00E94EA2969816F5F47
:10432000110F81EB93E0412F0DC0110F109581EB20
:1043300093E06981412F0E94EA2969816F5F81EBD7
:1043400093E040E00E94EA2909C081EB93E0698193
:10435000F9CF813019F489810E94C237DF91CF9162
:104360001F9108951F93182F80910401181771F061
:1043700066E0169FB001112464547E4F87EF91E0F0
:1043800046E050E00E9403161093040187EF91E08D
:104390001F91089508951F9380911E01E82FF0E06A
:1043A000E15FF54D949180911F01E82FF0E0EC5E04
:1043B000F54D549180912001E82FF0E0E15EF54D3C
:1043C0004491E0912101F0E0E25DF54DE4918091AE
:1043D0001D01282F30E0205D3F4F892F992787FD51
:1043E0009095280F391F852F992787FD9095280FC5
:1043F000391F842F992787FD9095280F391F8E2FFD
:10440000992787FD9095280F391F02C0245F3F4FE1
:104410002C303105DCF302C02C5030402136310500
:10442000DCF78091FD0190E02817390769F0122F21
:10443000822F64E60E945F368091FD018F3F11F06C
:104440000E94F0351093FD011F910895A82FB0E050
:10445000CD01895C954DFC012491269F212D1124CD
:10446000A35EBE4F2C930E94CB2108958FEF8093C3
:10447000FD010E94CB2108959C01F999FECF1FBA3E
:1044800032BD21BD60BD0FB6F894FA9AF99A0FBEFD
:104490000895109282021092810282E08093850238
:1044A0008EEF91E09093800280937F02809187024B
:1044B000813019F0813189F40BC0E0918802F0E07D
:1044C000EE5BF54DE491E09383021092840208952F
:1044D0001092840210928302089583E080938502F3
:1044E0000895A0E0B0E0E7E7F2E20C949B3C52E4D0
:1044F000A52E5AE2B52EFF2482E0F816C9F08F15DA
:1045000030F0FF2059F0E1E0FE1601F50CC0F3E0B9
:10451000FF1699F084E0F816C9F414C049E8C42ED7
:1045200042E0D42E13C031EBC32E33E0D32E0EC0A5
:1045300028EFC22E22E0D22E09C090E1C92E93E0CE
:10454000D92E04C080E9C82E83E0D82EF501E4906E
:10455000CCE3DAE2FE0184910E94D7202196FAE2B0
:10456000C234DF07B9F781E00E94D7208F2D0E9467
:10457000D720E60100E010E00DC02881020F222FB5
:1045800022952F70822F0E94D72089918F700E94D0
:10459000D7201F5F1E1588F3802F82958F700E9491
:1045A000D720802F8F700E94D72087EF0E94D720BE
:1045B000F3940894A11CB11C85E0F81609F09CCF77
:1045C000CDB7DEB7EAE00C94B73C1F938091870229
:1045D000813021F0813109F05EC05BC0109188020A
:1045E000123091F0133028F4112341F01130A1F46E
:1045F00008C0133061F0143079F40CC049E852E07F
:104600000BC041EB53E008C048EF52E005C040E169
:1046100053E002C040E953E0E12FF0E0EE5BF54DDE
:10462000E4912EEF31E0CA01B9014E2F50E00E9413
:104630000C16143019F40E94203222C0112301F507
:10464000E9E8F2E002C08191180F82E0E839F8074A
:10465000D1F73F9788EE93E0BF014FE050E02CE3A5
:1046600032E20E943816F999FECF1FBA87EF93E025
:1046700092BD81BD10BD0FB6F894FA9AF99A0FBE9B
:104680000E94B2370E94A93781EB93E00E94EF2885
:1046900002C00E9471221F910895482F803F41F46B
:1046A000109286021092820210928102109285026C
:1046B00080918502813019F1813030F0823091F1A2
:1046C000833009F08BC073C0809181029091820287
:1046D000FC01E45CF54DE491E41709F064C0019637
:1046E0009093820280938102069708F477C081E05C
:1046F0008093850210928202109281020895809127
:10470000810290918202FC01E957FD4F408301969E
:104710009093820280938102029709F05FC00E9409
:104720004922089580918102909182029C013695E0
:104730002795E0917F02F091800280FF1AC0E20F7E
:10474000F31F4F708081842B80838091830290912E
:1047500084022817390798F4E0917F02F0918002D3
:10476000E20FF31F809186029081890F8093860269
:1047700006C0842F8295807FE20FF31F80832091F3
:104780008102309182022F5F3F4F3093820220934B
:10479000810280918302909184020196880F991F73
:1047A00028173907D8F083E0809385020895473FA2
:1047B00091F4E0917F02F0918002809183029091C8
:1047C0008402E80FF91F909186028081981719F4EE
:1047D0000E94E522089585E080938502089508955A
:1047E00050919B02505E50939B0240919C02442347
:1047F000D1F480917F04581710F428E001C020E024
:1048000080916D04833008F420618091160588231F
:1048100009F18091180590E0019783709070892BC1
:10482000C9F4206217C0413059F488E090E000904C
:104830008B0202C0880F991F0A94E2F7282F0AC042
:10484000423011F020E006C020918902220F220F91
:10485000220F287360911705662391F020911003B1
:10486000237071F030E02150304081E090E002C0D0
:10487000880F991F2A95E2F7282F220F220F220F67
:104880008091F302882329F0181614F028E001C063
:1048900020E2662321F48091C8028823A1F0922FA0
:1048A0009760433019F490918A029F738091CC04F1
:1048B000882321F48091F702882311F0511190E0B0
:1048C00090939802089584E090E00090990202C0CD
:1048D000959587950A94E2F7922F982BE2CF0F9344
:1048E0001F930E94F0238091F402882321F08150CD
:1048F0008093F4029AC0009146056091F502709190
:10490000F60240919A02A5E4B5E011E050E0E0E043
:104910008C918F3749F5842F90E0212F30E082234E
:104920009323892B11F041271FC0002311F080E051
:1049300002C086E042E023E0222F2295207F850FEF
:104940008F70822B90917801E92FF0E0EE0FFF1F1E
:10495000E458F94F808381E081839F5F9F7090933B
:10496000780160E070E0EDE35F5F1196563011F082
:10497000110FCECF7093F6026093F502E093F4022C
:1049800040939A02003821F080914805803821F444
:104990001092F6021092F502002321F08091480552
:1049A000882349F48091F5029091F6020196909344
:1049B000F6028093F5028091F5029091F602885CF0
:1049C000944099F50023B1F423E0222F2295207F13
:1049D0002C6090917801E92FF0E0EE0FFF1FE45872
:1049E000F94F208381E081839F5F9F7090937801CE
:1049F00082E019C0809148058823B9F423E0222F72
:104A00002295207F2D6090917801E92FF0E0EE0F44
:104A1000FF1FE458F94F208381E081839F5F9F70DF
:104A20009093780188E080939A02309178002091E9
:104A30007900922F80E0232F30E0282B392B6091D2
:104A4000C702A62FB0E0FD01EE0FFF1FE356FD4F9A
:104A500040815181421B530B57FF03C05095419534
:104A60005F4FFD01E754FD4F808190E048175907E3
:104A700014F1AA0FBB1FA356BD4F2D933C93409139
:104A800022014423C1F4942F9295907F862F8F703A
:104A9000982B369527953695279580917801E82FA4
:104AA000F0E0EE0FFF1FE458F94F908321838F5FF2
:104AB0008F7080937801439A449A862F8F5F8093FA
:104AC000C7028E3049F41092C702809122018823D8
:104AD00019F0815080932201E091C702F0E0E65B7B
:104AE000FE4FE081E3FF02C0449801C0439888B1C3
:104AF000E770887FE82BE8B980910001856080939A
:104B00007C0080917A00806480937A001F910F91DD
:104B100008951F9380913B0520913C0530913D0500
:104B200040913E0560913F05E0914005A09141050F
:104B300010914205B82FBF5F91E0B81708F090E0E0
:104B4000F92FF20F81E0F21708F080E0782F730F51
:104B500081E0731708F080E0582F540F81E054175C
:104B600008F080E0382F360F81E0361708F080E03B
:104B7000282F2E0F81E02E1708F080E0982F9A0F33
:104B800081E09A1708F080E0810FB0933B05F09325
:104B90003C0570933D0550933E0530933F052093AF
:104BA000400590934105809342051F91089580919F
:104BB000CF048823B1F480911605882391F4809165
:104BC0006D04843071F40E94381F61517742804037
:104BD000904038F081E08093C8020E942532109204
:104BE000C8020895A0E0B0E0E8EFF5E20C949D3C27
:104BF000982FD62E8091F702882349F0953048F0FF
:104C00009A3068F4892F85500E9426226AC09A3013
:104C100030F4E92FF0E0E754FD4F88E005C0E92FBC
:104C2000F0E0E754FD4F84E08083E0919902F0E0EA
:104C300054E0EE0FFF1F5A95E1F7E92EFF24EE0D29
:104C4000FF1DEA5AF54DC490F701E753FD4F8081EF
:104C50008823A1F5E701CC0FDD1FC952DD4F888104
:104C600099818F5F9F4F61F48C2D0E94B2218C013E
:104C70000E946221682FC8010E943A21888319820C
:104C8000F701EE0FFF1FE952FD4F0190F081E02D7B
:104C9000ED19F109CF0107960F9740F4F701E7539B
:104CA000FD4F81E080831092F30208C01E161F069C
:104CB00014F08FEF01C081E08093F30289EC92E061
:104CC000E80EF91EF7018081882359F08C2D0E948F
:104CD000B2218C016D2D0E941921682FC8010E94FC
:104CE0007621CDB7DEB7E8E00C94B93C1F93182FBE
:104CF000809177018093780189EB92E060E170E028
:104D00004AE050E00E94151661E0612789EC92E0CC
:104D100070E04AE050E00E94151687ED92E06FEFD8
:104D200070E04CE150E00E9415161092F3021F91C2
:104D30000895282F80919C02833069F481E090E0EF
:104D400002C0880F991F2A95E2F720918A0228272E
:104D500020938A029EC0E22FF0E0EE30F10508F0C9
:104D6000A5C0E45CFF4F0C94CA3C1092990213C09A
:104D700081E08093990210C080911705882341F04B
:104D800080911003E82FF0E0E05FFC4F9FEF35C00B
:104D900082E08093990280E00E94762608958091B7
:104DA0001605882329F00E949A350E948F340895B1
:104DB0000E9499340E945F350E94B4350E94BB2F37
:104DC000089580911705882351F081E08093C802EF
:104DD0000E94A6351092C8021092F70208950E9410
:104DE000DD35089580911705882389F0809110039F
:104DF000E82FF0E0E05FFC4F9EEF91838F5F8093A0
:104E00001003803809F052C00E94A63508958091A1
:104E1000F702882319F01092F70204C08091CC04A5
:104E2000882319F00E944A3608958091CF04882380
:104E3000E9F181E08093CC04089581E08093F5014D
:104E4000089583E010C080918B028F5F80938B0266
:104E5000833010F010928B0289E892E00E94B5171F
:104E60000E94973781E080939C0208950E946C38DD
:104E7000089580E09EE19093900280938F0285E5F3
:104E800093E5909392028093910290939402809381
:104E9000930289E892E00E94B51708950E94362295
:104EA00081E08093F70208950E947122089526C040
:104EB00080917701E82FF0E0EE0FFF1FE458F94FE3
:104EC000208161818F5F8F7080937701922F9295FF
:104ED0009F70822F8F70933019F40E94992604C01E
:104EE000992311F40E94F2250E94541660939C06A7
:104EF00070939D0680939E0690939F068091780103
:104F000090917701891B8F7099F68091F501882324
:104F100019F082E080939C020E94541620919C0616
:104F200030919D06621B730B655C794020F01092F6
:104F30009C021092F3020E94541620919C0630911C
:104F40009D06621B730B6151774260F00E94D7256A
:104F50000E94541660939C0670939D0680939E0653
:104F600090939F060895569A529A55985A9A5E9829
:104F700083E495E06FEF70E048E050E00E94151682
:104F8000569A529A549A5A9A10929C023B9A439A71
:104F90003C9A449A87B1876087B980E48093000186
:104FA000EAE7F0E080818760808380818068808389
:104FB00085E480937C0080818064808389EB92E02B
:104FC00064E070E04EE050E00E94151689EC92E03B
:104FD00061E070E04EE050E00E9415160895EF92F7
:104FE000FF920F931F93CF93DF93EC01EE8DF0E0D0
:104FF000EE0FFF1FEE0FFF1FEC0FFD1F2081318111
:105000004281538189A59AA5ABA5BCA5820F931FA8
:10501000A41FB51F89A79AA7ABA7BCA782179307A0
:10502000A407B50708F04FC06F8D78A149A15AA118
:1050300064177507A8F4461B570B2FEF3FEFEE27B9
:10504000429FF12D539FC001349FF00D811D9E1F83
:10505000529FF00D811D9E1F1124860F971F17C0B0
:105060009B01241B350B4FEF5FEFEE27249FF12DA3
:10507000359FC001529FF00D811D9E1F349FF00D82
:10508000811D9E1F11249B01281B390BC9019CA364
:105090008BA32E8D2F5F243011F41CA21BA28BA199
:1050A0009CA198A38F8FE22FF0E03A96EE0FFF1F9E
:1050B000EC0FFD1F808191819AA389A32E8F19A6E1
:1050C0001AA61BA61CA6EE8DF0E0EE0FFF1FEE0F3A
:1050D000FF1FEC0FFD1F80819181A281B38100979A
:1050E000A105B10509F453C0EF8CF8A0A9A1BAA19C
:1050F00049A55AA56BA57CA5AB0166277727852F07
:1051000090E0880F991F9C012857364FF90165914F
:1051100074918657964FFC0125913491261B370BCD
:105120001127249F012D349F000D111D1124060FFE
:10513000171FEA16FB06A0F4AE19BF09AD0122271E
:10514000409F312D519FC001149F300D811D921F32
:10515000509F300D811D921F11248E0D9F1D15C073
:1051600097012A1B3B0B4427209F512D319FC001E3
:10517000129F500D811D941F309F500D811D941F53
:105180001124F701E81BF90BCF019CA38BA38BA182
:105190009CA1CDB7DEB7E6E00C94BB3C9C01F9992D
:1051A000FECF1FBA32BD21BD60BD0FB6F894FA9A8A
:1051B000F99A0FBE0895FC01623069F0673019F06A
:1051C000613061F404C0E051FF4F440F02C0E5516B
:1051D000FF4F40830895E451FF4F40830895A0E0BE
:1051E000B0E0E5EFF8E20C94993CEC019D84BE84BC
:1051F0008F84AC84EA2DF0E0EE0FFF1FEE0FFF1F4F
:10520000EA5AFF4EE590F59005911491CC5BDF4F83
:10521000E992F99209931993C92CDD24F601EE0F56
:10522000FF1FEE0FFF1FEA5AFF4E25913591459162
:105230005491288339834A835B83682D70E0FB0196
:10524000EE0FFF1FEE0FFF1FEA5AFF4E859195915B
:10525000A591B491289688839983AA83BB83C0556E
:10526000D040A0E0FE01E65AFF4F1082B182FE015D
:10527000E45AFF4F1082B182CF58DF4FE992F99282
:1052800009931993288339834A835B83289628835B
:1052900039834A835B832A9619921992198218825C
:1052A000C958D0403889A601559547957595679599
:1052B00037FD2CC0330F1A2D2A2F239FC0013095A4
:1052C000139F3095800D911D1124E92F192D439FB7
:1052D000C0013095139F3095800D911D1124592FD9
:1052E00020EC4B2D239FC0013095439F3095800DBE
:1052F000911D1124492F182D639FC0013095139FD4
:105300003095800D911D1124292F21C0330F2A2F94
:10531000239FC0013095439F3095800D911D11242E
:10532000592F4FEF20EC439FC0013095239F3095BC
:10533000800D911D1124492F28E0239FC001309535
:10534000639F3095800D911D1124292FE0E0F0E03E
:10535000EE0FFF1FEE0FFF1FEA5AFF4E859195914A
:10536000A591B491C256DF4F89939993A993B993AC
:10537000E52FF0E0EE0FFF1FEE0FFF1FEA5AFF4E82
:1053800085919591A591B49188839983AA83BB83D4
:10539000E22FF0E0EE0FFF1FEE0FFF1FEA5AFF4E65
:1053A00085919591A591B491289688839983AA8334
:1053B000BB83CA5AD040FE01EC54FF4F1082418398
:1053C000FE01EA54FF4F10824183CDB7DEB7ECE017
:1053D0000C94B53C0F931F93CF93DF93EC01142FE4
:1053E000FC01E60FF11D008140836C50663010F423
:1053F0000E94EF28011721F0C453DF4F81E088831A
:10540000DF91CF911F910F910895FC01E751FF4F5C
:10541000718360830895FC01E351FF4F6083089519
:10542000FC01EF53FF4F11821082349711821082DA
:10543000ED5BF040DF01A154BF4FE654FF4F819177
:1054400091918D939C9324E020833B96108211824E
:1054500012821382E056F04011821082349711823A
:105460001082E356F040DF01AB59BF4FE05AFF4FC7
:10547000819191918D939C9320833B961082118210
:1054800012821382B7961182108234971182108291
:10549000E059F040DF01AE56BF4FE357FF4F819117
:1054A00091918D939C9320833B961082118212825E
:1054B00013820895FC01E751FF4F80E090E2819351
:1054C00091931192119210820895FC01DC01A35472
:1054D000BF4FEF53FF4F80819181E15CF0408D938E
:1054E0009C93DF01A154BF4FEE54FF4F8081918107
:1054F0008D939C933A9610823B9610821182128271
:105500001382E75CF040DF01AD59BF4FE959FF4F0F
:1055100080819181E756F0408D939C93DF01AB59D8
:10552000BF4FE85AFF4F808191818D939C933A96AB
:1055300010823B961082118212821382ED56F04047
:10554000DF01A057BF4FEC56FF4F80819181E45996
:10555000F0408D939C93DF01AE56BF4FEB57FF4F4A
:10556000808191818D939C933A9610823B96108214
:10557000118212821382F39681E080830895FC01E8
:10558000DC01A354BF4FEF53FF4F80819181E15C59
:10559000F0408D939C93DF01A154BF4FE854FF4F1F
:1055A000808191818D939C93349623E020833B9658
:1055B0001082118212821382E75CF040DF01AD5944
:1055C000BF4FE959FF4F80819181E756F0408D939D
:1055D0009C93DF01AB59BF4FE25AFF4F808191810D
:1055E0008D939C93349620833B9610821182128275
:1055F0001382ED56F040DF01A057BF4FEC56FF4F2E
:1056000080819181E459F0408D939C93DF01AE56E7
:10561000BF4FE557FF4F808191818D939C933496C6
:1056200020833B9610821182128213820895A0E09B
:10563000B0E0EDE1FBE20C949E3CEC01162FF42E61
:10564000D22EEE2019F08989882319F4CE010E9408
:10565000652AFE01ED51FF4FC951DF4F88819981C5
:105660009183808320E8129F900111243A932A931A
:10567000C55ED040402F4F0D47FD4FE7C251DF4F71
:10568000499308832C9788819981C35ED040892BE8
:1056900029F0EE2071F48989882359F0FE01ED513B
:1056A000FF4FCB51DF4F88819981C55ED0409183F8
:1056B0008083888D282F30E02D0D311D2F3F31053F
:1056C00019F010F08FEF888FF901EE0FFF1FEC53E8
:1056D000FD4F85919491CF51DF4F99838883FE01CF
:1056E00012921292CDB7DEB7E7E00C94BA3CDC011F
:1056F0006F3F09F45FC0FC01E354FF4FAF53BF4F4E
:105700008D919C911197A15CB04091838083FD01A4
:10571000E154FF4FA854BF4F8D919C9111979183F5
:105720008083149623E02C931B961D921D921D924C
:105730001C921397A75CB040FD01ED59FF4FA9598A
:10574000BF4F8D919C911197A756B0409183808354
:10575000FD01EB59FF4FA25ABF4F8D919C911197BC
:105760009183808314962C931B961D921D921D92FB
:105770001C921397AD56B040FD01E057FF4FAC5659
:10578000BF4F8D919C911197A459B0409183808314
:10579000FD01EE56FF4FA557BF4F8D919C9111977C
:1057A0009183808314962C931B961D921D921D92BB
:1057B0001C9213970895EF92FF920F937C0160E083
:1057C00070E04CE150E026E83AE200E00E947917F0
:1057D00028E530E0E20EF31E8FEF9FEFF701918393
:1057E000808326E030E0E20EF31EF7011192119261
:1057F0007F01118210822CEE3FEFE20EF31EF701C3
:10580000108211821282138228E030E0E20EF31E31
:10581000F70110821182128213822EE030E0E20E34
:10582000F31E24E0F701208340E550E0E40EF51E6E
:10583000F7019183808346E050E0E40EF51EF70106
:10584000119211927F01118210824CEE5FEFE40EF3
:10585000F51EF701108211821282138248E050E097
:10586000E40EF51EF70110821182128213824EE0BF
:1058700050E0E40EF51EF701208349EC5FEFE40EE3
:10588000F51EF7019183808346E050E0E40EF51E9B
:10589000F701119211927F01118210824CEE5FEF9D
:1058A000E40EF51EF701108211821282138248E085
:1058B00050E0E40EF51EF70110821182128213826D
:1058C0004EE050E0E40EF51EF701208328E530E0BD
:1058D000E20EF31EF7011182108224EE3FEFE20E7A
:1058E000F31EF701119211927F01108223E230E042
:1058F000E20EF31E80EFF701808329EF3FEFE20E07
:10590000F31E80E090E2F70181939193119211923E
:105910007F01108223E13FEFE20EF31EC7010E94D8
:10592000EF280F91FF90EF9008951F93BC019C0109
:10593000FC0110E002C08191180FC9014C96E817D4
:10594000F907C9F780E090E04CE150E02EEC38E236
:105950000E943816F999FECF1FBA8CE190E092BDF3
:1059600081BD10BD0FB6F894FA9AF99A0FBE1F9137
:105970000895FF920F931F93182FF92E60E070E0A7
:105980004CE150E026E83AE201E00E947917812FCD
:105990009F2D0E94952C1F910F91FF900895CF93FA
:1059A000DF93EC01C453DF4F8881CC5CD040882367
:1059B00019F0CE010E94952CC453DF4F1882DF915D
:1059C000CF910895A0E0B0E0E8EEFCE20C94953CA5
:1059D000EC01C65EDE4F9880CA51D1408C898EA7FB
:1059E0008D89823080F0E82FF0E0EE0FFF1FEE0F80
:1059F000FF1FEA5AF34F85919591A591B4918C8F31
:105A00009D8FAE8FBF8F8E89E82FF0E0F595E795DB
:105A1000EE0FFF1FEE0FFF1FEA52F24F8591959197
:105A2000A591B49188AB99ABAAABBBAB2F89FE0112
:105A3000E551FF4F27FD07C0F080220F3F2D239F28
:105A4000812C112407C080802095220F482D249F8F
:105A5000F12C1124CE014C960E94B01F6C01412CF8
:105A600050E8552E480E591ECE01C0960E94B01F18
:105A7000612C40E8742E680E791EC253DF4FD88225
:105A8000CE5CD040CE018F589F4F0E94EF275C0123
:105A9000DE01AF51BF4FFE01E152FF4F2D913C910E
:105AA000119780819181820F931F91838083821748
:105AB000930730F48FEF9FEF918380831D921C92A8
:105AC000CD51DF4F499159912881398126976881BD
:105AD0007981CF5DD040421753079CF4241B350BCE
