:100000000C94C5150C94ED150C94ED150C94ED1590
:100010000C94ED150C94ED150C94ED150C94ED1558
:100020000C94ED150C94E2170C9475170C94ED15C7
:100030000C94ED150C94D0170C94ED150C94ED1553
:100040000C94BC1A0C94ED150C94ED150C94ED1554
:100050000C94ED150C94ED150C94ED150C94ED1518
:100060000C94ED150C94ED151A1F2A1F3B1F3E1F13
:10007000461F501F631F921F242361231E233E230C
:100080001B2350238A23C6238823A2238423A5234A
:10009000BE23C42308000000BE922449123EABAA2E
:1000A000AA2ABECDCCCC4C3E00000080BEABAAAA92
:1000B000AA3E00000000BF000000803F00000000DA
:1000C00000084178D3BB4387D1133D190E3CC3BD13
:1000D0004282AD2B3E68EC8276BED98FE1A93E4CC0
:1000E00080EFFFBE01C4FF7F3F0000000000000161
:1000F00002030405060708090A0B0C0F113C1268DD
:100100007800383C7896003C2A82B40E481442E0CD
:10011000002A346AA03C6C121048406C2420608C89
:100120006C24325AB474242050967C28BE5A287C01
:100130000000500088000050008800006E0094000D
:10014000005A009A00002D00000403000000000483
:100150000000000000050000000000060300000091
:10016000000600000000000700000000000800007A
:100170000000000900000000000A00000000000B61
:100180000000000000180000000000020400000051
:10019000000302E020000014010007000015000029
:1001A0000000000C00000000000D00000000000E28
:1001B00000000000000F0000000000100000000020
:1001C00000110000000001020514F000010300000E
:1001D00000000100010008000101010005000115F7
:1001E00001000F00000002FE0200000102817F00FA
:1001F000001903000000001900000000001A0000B0
:1002000000000016000000000017000000000104BC
:1002100000000000010500000000010600000000D1
:1002200001070000000001080000000001090000B3
:100230000000010A00000000010B00000000010C9A
:1002400000000000010D000000000100000000009F
:10025000FFFFFFFFFF0AFFFFFFFFFFFFFFFFFFFFA3
:1002600001020405080906070F101112131D1E14C0
:10027000FFFFFFFFFFFFFFFFFFFFFFFFFFFFFFFF8E
:100280001A1B0B0C1F200D0EFFFFFFFFFFFFFFFFD0
:10029000FFFFFFFFFFFFFFFF120F06100E02FFFF21
:1002A000FFFFFFFFFFFFFFFFFFFFFFFFFFFFFFFF5E
:1002B000FFFFFFFFFFFF2122232425262728292ACD
:1002C00016171819E400D4000E00D600A034DA0086
:1002D0000000862068001654E616003A06008A14CC
:1002E000DC12B022E61A3418521C34769A1A3418EA
:1002F000CAD4BAC4E2002A004200E20EEE007E0038
:10030000540AAA1600003600B6008024060A540AD1
:10031000EE089E1AF02EDA18E8006000F01CCC1EE1
:10032000D6004000EC00E2000000A0000000BC008D
:100330000000D2001ABC003EF26608A016D80030B9
:10034000C8701E16E6D4DEE4B40E7220A026420C5D
:100350009A165824EC180E3600006A00CADC00B267
:1003600000A08C08865272A0E000162C42280000E3
:10037000C0160E9EAE56E63A7C40D23AA04CE0162D
:100380007C22C21AE40E24184A367A1ABA0E602267
:10039000121E300C02002E26E200440002005C1EF9
:1003A000E8A67416400CEC80A01ECA4A441CE478EF
:1003B000A01CBC52F0CC2A00566C4268BE16E0006D
:1003C0000E9400240000703EE8B4002200301A129F
:1003D000D6128A26E8BAE0B66C3C503E8E2A182225
:1003E000880EAA1AE0006200004400C60088AE0031
:1003F0002E1C740C005E0000E0A0142200340000EB
:10040000C2001076E4688A5A7A666C4CC4A0B6A022
:100410006024CA16F60A580ED60A3E08FA08280EB4
:10042000C60EA07810BA2C34E60C7412169A0A1272
:10043000F658483A8882DC4082789C208070DC2024
:100440007E6AB858EC00008A0000D0003A1CAE006A
:1004500068003A000A420008E80000260094000EF6
:10046000C60072009A62F422A06CC018A062E41464
:10047000A05CC22C04FB741B0D299EF507D0EC1266
:10048000E9F0F8E200002BECBCF50DEDC7EDA3C7D9
:1004900027F0F6F8FB07DF0317FA1F120BEDC73042
:1004A000FDE0EA1A23FA3CC6DC0E0D3FFEE3EBFE4C
:1004B0001B0AB50358F516395310F01010130D45EB
:1004C0000EE7F209F9E3120CD9E826CE0945D8E384
:1004D000DF10D9D707C8BDBECAF3FCE713C7CFF6F4
:1004E000F62C01C9CD1AF9D3E41A07E01F01D3F4A1
:1004F000403CF6F0365816F60406150A02E80D18C8
:100500002F30E156F4F43510F9D1402BDC9CE14F4B
:1005100003CBFBEFC7400AAC05E493A1F4E7DBBDD6
:10052000E3EF80CED1B6E4EC13D70E1B1D1003F41D
:10053000FC43033AFD46F6E052C8213610F9DB1EB3
:1005400004DADFF157EDD0121051170CD9D305D4CE
:10055000F4ADD747D2E5F2AE074EEAA4B8FB48DACD
:10056000D12E07F60AE2A41017BDE81A18EB2002F4
:100570001B2FB51F3AF4F3D64A35A4F417490EF4ED
:1005800029FD0498CE2DF0D8B0C9F81315C3FD325B
:10059000EAFBFED6E3E7FBE1A498F8201E1BCFF1AF
:1005A000EF1B18295A121703DAEF5604D8C9BA40BC
:1005B000ECDC10DBFB47CD87A7136CD7EDF9A83D2A
:1005C00056D9DBFC4A0EB62534FDE5D4D8DC010A49
:1005D000EDE3F103F9D90C2EFCF3DFE5D8FA18C3EB
:1005E000C3DF290EC527F20621D3130E000DE8D76D
:1005F000F2FD3CE4BA183D14B7B6F304FBE9EB1482
:10060000E90B1AF6B7F012E360E4985746CDDBD851
:10061000020FE4E10217E2FD1AE8C3251C06F0E12F
:1006200023160CE4D6F5F6D204EBD425F8EC0FF83B
:10063000F304FD010EF9F8370BC3E905F5CEF8FB1D
:10064000E2F8F0DF05E50B14C2F3FCF6C93D37DE36
:100650000997D223DAEDE70321E8DAF025FCFA5610
:10066000E49E0D14FAC60946DF0415EB18F4B02316
:1006700021E4F804EAE810DFFB1C011BE7D40D0BB2
:10068000D6CA3D09A7CAE9D10B13CECBC8F01501D4
:10069000E53E09E1FEEFCA094AD8B9C928DE006281
:1006A000E9D8171BF20B151001C10A4E0FF9E70527
:1006B0000BD6F005E003F0E9F4C3C829F0C2EFE07F
:1006C00053F5A1E9050EFDDCE8143C0F92CBF313C2
:1006D000E7DC1CFE0C4917B1071A173603CEECFEF7
:1006E000FEDBBF1012DA01E4CE1BF3D2CBE305E44C
:1006F000E2FCE3FE13D6F1F8242ECFDC14DCBE0BB3
:10070000F8F0323CCADFF3F515E5391D0F26040970
:10071000FBE90AF8BEF12004C8ECDC005AF59CD9CC
:100720001E0DD1C8DCF83609C9C11A34DCB7DA04A9
:1007300007F3D8E8F52E04D61D1D00421ED6E3149B
:100740002EEDE53028E5FCD3EDF0FB27CDCBDC0723
:10075000E8BF0D09D7FDF4DC1BFA0604D900FD251E
:10076000F1D4031221D3A70025F8F0F90A2E1FEFC8
:10077000F8E2F6F8E31CEBE8FAF00FE7F3F5020B0A
:10078000C0D41AD9EB16BF2006B2102D13E8F2E23E
:10079000EC00C0214DD6EDFCE5FED7F325FAEF09BC
:1007A000340CDAF2091727D0EA1DC8FD09EDE02E56
:1007B00006D71FFB23D6E0F4A9E71A13EFF1E30FE6
:1007C00010DBF0FD04E41015B1051FD7F6E7F62B9A
:1007D000FBEB0200141F173AF6CF3EE4E205DA16EF
:1007E000E8EADFF535F1D4FEDCD8F1E910E4C5FD27
:1007F00026E3E7131C1AD1F320F6E1F1060BF9FE0C
:10080000E41B03D301F51A030BD6D932F5ED3515E8
:10081000ED13E9F6E8D20DFDE5EAF5E8E9F514E3B4
:10082000F50CF102E4F22D0AFE1AD8F81A0DE9BA15
:10083000FBF8F4F2C910FE07F5C0E40413DE151549
:100840001301EB4AD7D742F2E417F2FEF9F2EAEAD3
:1008500026F0FE31E0F600F2D8D443E4D24315EAA4
:10086000FDECDE20F8C230F6CF16F9C2C72C24F911
:1008700012DCF439E312F3E347CDF90DC1BAD21A11
:10088000FB10F9FE29CDD93805D3F90300E818ED9E
:10089000ED1FF418120AF52EFCC2FCDCFA0A12F560
:1008A000E4031EF9D7131F0CB6E7F8EF04D7130AB9
:1008B000DC1227ECF1130EE2071D0E02C5F4EDED7C
:1008C0000507420A0BEFE838EDF414EBCDF401E92B
:1008D00002CDD1170410401307EBF6ECD007DC056E
:1008E000EDD21CFD050EE71F150C35DBDF000AF30A
:1008F000E41C06ECFA07E7D81E32F8EBC6102DD23E
:10090000ECE8E1FE09F51A34E3E32C0DE90718F5EC
:10091000F0EDCB010ECFED122121FBF9FC00F3F13C
:1009200020E10218D9E1F0021620FB06F90EFCF3D3
:10093000FD060E0216F009F8F0E1EC1BF80204E5E2
:100940000105D0F3F5D6DCE00502E3F0F510070E63
:10095000141534F8D8FAFDED201A030BDAEC0F1257
:100960001C1A1507FA0318F5D1F214F4ECEF04FE83
:10097000DED6D3101B0FEFFE02D8F300F615FBD81E
:100980001D230AFA0F14D8ED03F2FB1EF5DAEA0173
:100990001805030A1DEF062DF21323FCDF09FDFDE8
:1009A00005E2060A12F4EB1A00F201E20121F8E472
:1009B000ECE7E90516F60FF3EB02F3F4CB0705EAD3
:1009C000DEF9291603F902F91F0C06361DFCEF1299
:1009D000FDC2F828F6EFF40A14EDF80B0E0B07DC55
:1009E000F003E709F906F40105D40B020A13E8F253
:1009F000E8EB26E3E721F81515EB0427FCFD0901D8
:100A000006F906E30402ECFAE3FD0AEFF814060621
:100A100007F4EFFA0EFE070DDAF402EF0A0B02FB01
:100A2000DADFFD0E0DED1C0AE91300FB072B0A07A8
:100A3000F5FB0AF618EAEA1207ED040303041FFCAB
:100A4000EC10DE0EF5F00FECF6E00309EB12F6E029
:100A5000010B01E70D14FC02030E04F20E2B05DE60
:100A6000012406E3D8152300ECE9FDFC06F9F9237F
:100A7000100902E8030DF6FB05DEFC21F8E8F3138C
:100A80000A01E2FA13ECF6ECFAFBEDF4FD2017ECA8
:100A9000131BFAF4EA103904EB07FCFA100D130FDC
:100AA0000301F51BF500FDDC06F4FCF2FEFAFBFA8F
:100AB000E91413E80607CDF209010BFBE91410FB5A
:100AC0000605FB0316D8FB37FAF8F3F50F031010F1
:100AD000070013FCF516031E040CFBE105FCFADF0E
:100AE0000907FD0DECF9FAE3020B05F5E912F4EA4A
:100AF000EF0F27E8F903FA1603EF01FE02060609D5
:100B00000C04F609090214120305140CF303E80699
:100B10000C0117FE04FDF3F0F9FA18FAEDEBE00909
:100B2000F9FEFDF90B14FAEB0603F81704E0FC20BC
:100B30000FE8F0001F1B06FA04070D02E20A1A0272
:100B4000FB12F8F2EFF003F6F5151405F3F315F3C5
:100B5000E9F21B1BFDFCFA03F6000B120305090169
:100B6000E5ECF1F905FD0EF317FBF31D0012FBFC9C
:100B700006FB0BF4FC0A051DF40512FD1CF1E4FD57
:100B8000011C0FF600F4F604EDEF1A0407FEE40072
:100B90000304DFF00C171FF9E2F40E0409051B181B
:100BA00000F1EBFCFA100E00FE0706FA03F50A024C
:100BB000F0FE0A1000EBD91312ED1009FC0CF3EB58
:100BC00005F40C1B05030C04F9FBF209050C13F0EA
:100BD00006FBF6FCEA0B040301FB05EBFE07FA0437
:100BE00002FC211AE8FE04F9121400030B090BF8A9
:100BF000EF03FDFD00F0FD0CF3E10521000918F005
:100C000003F5E802FB04120EFE0CF1FB09E50A16DF
:100C10000A051401FE0DFDF80F1702F1E104EFEBD8
:100C2000F0F810FE041204DFFB00F91F060415F4AF
:100C3000F40906FC1D10F904E5FE0DF80706F8148A
:100C400015F2E4FAFC030C03010218F9F3F5FD0AAE
:100C500005FCF815FE0103F9FC07160C05FCF9016B
:100C6000F3ECF4012C0AE9020D0EFCF4F8131BF965
:100C7000F80BF8F6170F02010902F6EDF213FEE485
:100C8000151503EFE7060A05F8F30A17FD09F8F151
:100C90000D0110F8F40DFA0C05F8070A1E1A0503E9
:100CA00003FEF6F50514FE1605E8FC0305EFF9ED65
:100CB000FD0CE5E2F01510F8F6020E060302EB015A
:100CC000200B04F8031A05ED031F0BF305150D04A3
:100CD000F4F802FD1307F3FEFC02FCF4F8131A0308
:100CE000F9F2030501E4F4030412F6FEFDFCFD0134
:100CF000050F09FCFBE1FA0E0E04FE04F90F0B04CC
:100D0000040C0B05070D100C06F1FBF40007020B99
:100D1000FC0AF5F2140E00F9FEFE05F0EAF8F0F90F
:100D200001050AFE031200EC010EFA010DF9030A97
:100D30000D0D090904020105EAFC161307F6FDFC76
:100D400003F4FA1303FBFD02050507FAE9F10012AB
:100D500003FA0AFBFBFC0C090B24060001F9FEF860
:100D6000F9FDFB030D0603F30306F807030606F27D
:100D7000F1040A030A13FAFE0EFA0909FAFA07093E
:100D8000FB01EA0001F102000703120BFAFBF80D68
:100D900003030E06030604F8F30D0F0E0DF802F917
:100DA000F4040A05FA1307F502F30705F40202EF4B
:100DB000000DF0F3FB01FC0606F8FC001205F90536
:100DC000170EFCFD1203010D0003090B06F0F00ED7
:100DD000FD020703030301F2EFF80CF9FC09090413
:100DE000EBF20004041201FC0AF5FC0AFD091709E4
:100DF000041406F90504F3FA060509EFF90EECE907
:100E00000405050C0209FC0214FD010A0C0704FB91
:100E1000F9F00613FAFBFD090BFAEAFD05060003DB
:100E200009F10403F906020E13F4FA02F30904FCB3
:100E300007090AFD00050007FCFE0D0A050CF4F089
:100E400004FCFD0001FEFCEDFE0DFA000E0F040592
:100E500009FEF4FC100AFC0B1309F2F304FA040275
:100E6000FD00F80903FBFDFD1003010D020307F867
:100E7000F30A06040CFBF400FA0300FE0D090CFE55
:100E8000050AF50901F810010115F4ECFE0705F853
:100E90000601F1EDF906FAF9100E000C0EFDFC0347
:100EA0000A07FE000E0CF8F4FD020B050B0AFAFD12
:100EB0000202FAFD0E03FD06FB0003F1010A000227
:100EC00000FA0501F5030A030006F80601FD0D020C
:100ED0000AFE0AFDF209F8FC01030C060CFAEDF417
:100EE000051001030B0E0A0300FBF505060310FCB9
:100EF000040EFCF4FC000706FCFCFBF6F802FD0403
:100F000005FBF90D07F50AFDFE00FE100403FEFEC9
:100F100005F9030B031000F9060404FB0712FBF8A4
:100F2000FBFA09FBFA060201090500F8ED020904C3
:100F3000060C0601F8F803060B0709FC000AFCF68C
:100F400004F5FB05FC020400F8F90409FE0601FBA8
:100F5000FC020BFBFA01060B03F80B010202FA1765
:100F6000090406F0FB07070C070DFEFD02F8060258
:100F7000FE04FC0201FDFAF4F8FD0C00FE0C04FD79
:100F8000F9FD0206040404FEF9FE04FE0603FE0E4B
:100F900005F80401FE00020F04020602FCFA050C2B
:100FA000050406F802FAF403FB0606FE030403FC3C
:100FB000FA03041204F10203F9F50205FD02F4FA42
:100FC0000AFEFD0001FE060A0406FE0407010B0EE0
:100FD000020501FD0303FD0107FE09FEF9FDFD0900
:100FE000FCF8091005F8FBFEFEFCFD02FD0203F50E
:100FF0000007F1FA0C01040101FEFE04030E0203D6
:10100000050307FE040402010101030305F9FC0DB9
:1010100002FE000604FE00FC0601F40500FC0600CA
:1010200001FBFA0705000405FCF3050AFB00FDFDC2
:101030000704FE0503FE01FA0105FDFEFD000200A6
:101040000604010A040602010D06FE000005040064
:10105000FC02FBF907000407FEF6FB0301FEFA059C
:101060000400FC0704FD030505F2FE0AFE02FEF57E
:10107000000B01F80B09FB0706020405FE0603F945
:1010800005FD00FDFD050203FBFEFC0506FC02005C
:1010900005FDFA01050BFD010A0000050000FEF246
:1010A0000407F8000400F6FC07040605FC05060327
:1010B000F8FE0BFD010101050000030307FDFE0D15
:1010C000FEF9000405FEFB010600FB01020004011D
:1010D000F8FE00F5FE0002FE00070102030506010E
:1010E00000090A000100FC0401F9FE0903FA0504E5
:1010F000000601FC0700FD04FC01FBFE040602FCE7
:10110000FDFEFBFD02FE0500FAFE030705000500DB
:10111000FD0A0605FCF5FE0504FA0107FBFAFE05CB
:10112000040504FE070200030400FC020402FD0A99
:1011300001F5FD01020406FAF2FC04FB00FE0504C1
:10114000F90402FDFE0602FE05FDFC0403FE010398
:10115000010407010303FD05070201FEFE000AFD6D
:10116000F50300FBFB0103FEFEFAFC04FE0106FD95
:10117000FEFE030C06000204FCFD0301000401FD59
:1011800005020302FB01020006060002F8FB090645
:10119000FBFD03FEFB000302FEF90203FD00010458
:1011A00000FE020002000100FAFD03FEFB04020043
:1011B00001FE010106060201020A0505FEF8090703
:1011C000FD000603FDFE00000305FEFBFEFD01031E
:1011D000FC00FEFAFDFB0004FDFC00FBFB01030428
:1011E000FB030503040309FEFA050C05FD010103D9
:1011F00009010001FC0202FD000101FE0100FB04E7
:1012000000FC02FE0101FD00FDFDFDFE050100FDEB
:10121000FD0300FE0302FE02FEFE060402FBFB03CA
:101220000304030303FC0306FD02060102FCF902AA
:10123000020505FDFC0201FB0102FDFD00FD0000B1
:10124000FBFD0200FB040201FDF90203FE000202A5
:10125000040301020604FD0305040101040200FE6B
:101260000101000200FEFDFD020101FDF80102FE88
:10127000F6F60509FEFB01FE0102FDFD0402010177
:10128000FB000203030400030A01FE03030405F844
:10129000FB06040300FEFD0102FEFD000201FDFB52
:1012A00004000007FBFB010200FB000201FCFB0342
:1012B00004FCFDFE0002010101030301FE02010026
:1012C000000102010305010001020504FC03030102
:1012D000FCF9030301FEFEFEFE00FDFEFCFE000025
:1012E00000FBFC0406FEFD020103FEFC03040101F9
:1012F00001FE0403FC00FE000002060000FE0103E4
:10130000000101010001FEFD01FCFD0304FEFCFEE5
:101310000004FEFB00010100FBFB0401FE0401FED2
:1013200003010202000202010004010002FE0205A4
:1013300002000003010102FDFEFEFD0300FDFEFEB2
:10134000FE0202FD0001FBFBFEFEFE00FE0000FDB2
:1013500001020402FDFD0404000101030102040175
:101360000603FE0000010100FDFE01FD0101FEFE7D
:101370000002FEFE00FE00FE00FEFD0201FEFEFD7C
:10138000FB01060000FEFE0202FDFC01000301FD60
:101390000301000404FE0102FE00FDFE020202FE43
:1013A000FE020201FDFE02FC0101FC0000FE00FD48
:1013B000000201FEFCFC00020300FE03010102002A
:1013C0000202FEFE01020000FDFD0001020200001B
:1013D00002FDFE010100FDFDFDFEFEFEFEFC01041E
:1013E00001FCFE060301FCFD040300FAFE020303F8
:1013F000000300010200FDFD0100FEFCFD0402FEF1
:10140000FE00020200FE000100FDFAFE00FE01FEE9
:101410000100FE0002FE01040002FCFC02FDFC03D0
:10142000020201FC00030202FE000001FEFC0001BA
:10143000010200FE0104020000FE00FEFEFEFCFEB2
:10144000FEFEFEFE020300FBFE0203FDFD010100A5
:10145000FE00FE00000002000103000002FE010089
:1014600000010101FEFE0103010100FE01FEFDFE7F
:10147000FE01FEFCFEFFFCF9F6F3F0EDEAE7E4E125
:10148000DEDBD8D5D2CFCCCAC7C4C1BFBCB9B7B4D4
:10149000B2B0ADABA9A6A4A2A09E9C9A9897959332
:1014A00092908F8D8C8B8A898887868584848382AD
:1014B000828281818181818181828282838384850C
:1014C00085868788898A8B8D8E8F9192949697993D
:1014D0009B9D9FA1A3A5A7AAACAEB1B3B6B8BBBD57
:1014E000C0C3C5C8CBCED1D4D7D9DCDFE2E5E8EBA9
:1014F000EFF2F5F8FBFE0104070A0D1014171A1D90
:10150000202326282B2E3134373A3C3F424447498A
:101510004C4E515355585A5C5E6062646668696B04
:101520006D6E7071727475767778797A7A7B7C7C5F
:101530007D7D7D7E7E7E7E7E7E7E7D7D7D7C7B7BD9
:101540007A7978777675747372706F6D6C6A686784
:101550006563615F5D5B595654524F4D4B4846433E
:10156000403E3B383533302D2A2724211E1B1815C9
:10157000120F0C090603FFFDFBF9F7F5F3F1EFED90
:10158000EBE9E7E5E3E1DFDDDBD9D8D6D4D2D0CF94
:10159000CDCBC9C7C6C4C2C1BFBDBCBAB8B7B5B44C
:1015A000B2B0AFADACAAA9A7A6A4A3A1A09E9D9BD3
:1015B0009A999796949392908F8E8C8B8A8887862F
:1015C000848382817F7E7D7C7B7978777675737268
:1015D00071706F6E6D6C6A6968676665646362617D
:1015E000605F5E5D5C5B5A59585756555453525173
:1015F000504F4F4E4D4C4B4A49484847464544434F
:10160000434241403F3E3E3D3C3B3B3A3938383710
:10161000363535343332323130302F2E2E2D2C2CBE
:101620002B2A2A2928282726262525242323222257
:101630002120201F1F1E1D1D1C1C1B1B1A1A1918E0
:10164000181717161615151414131312121111105A
:10165000100F0F0E0E0E0D0D0C0C0B0B0A0A0A09C3
:101660000908080707070606050505040403030320
:1016700002020101010000F4F4F4F4F4F4F4F4F4CF
:10168000F4F4F4F4F4F4F4F4F4F4F4F4F5F5F5F615
:10169000F6F6F7F7F7F8F8F8F8F9F9F9FAFAFAFBC5
:1016A000FBFBFCFCFCFCFDFDFDFEFEFEFFFFFF0066
:1016B000000000000000000000000000000000002A
:1016C0000000000000000000000000010101020213
:1016D00002030303040404040505050606060707C0
:1016E00007080808080909090A0A0A0B0B0B0C0C61
:1016F0000C0C0C0C0C0C0C0C0C0C0C0C0C0C0C0C2A
:101700000C0C0C0C0C0C0C0D0D0D0E0E0E0F0F0F07
:1017100010101010111111121212131313141414AB
:10172000141515151616161717171818181818184F
:101730001818181818181818181818181818181829
:101740001818181919191A1A1A1B1B1B1C1C1C1CF7
:101750001D1D1D1E1E1E1F1F1F2020202021212198
:101760002222222323232424242424242424242442
:10177000242424242424240003070A0D10131619FA
:101780001C1E212426292B2E30333537393C3E4070
:10179000424446484A4B4D4F5152545557585A5B54
:1017A0005D5E5F61626364656667696A6B6B6C6DE1
:1017B0006E6F7071717273737475757676777778F2
:1017C0007879797A7A7A7B7B7B7C7C7C7D7D7D7D68
:1017D0007D7E7E7E7E7E7E7F7F7F7F7F7F7F7F7F21
:1017E0007F7F7F7F7F7F7F7F7F7F7F7F7F7F7F7F09
:1017F0007F7F8080808080808080808080808080EB
:1018000080808080808080808080808080808080D8
:1018100080808080808080818181818181828282BC
:10182000828283838384848485858586868787886E
:101830008889898A8A8B8C8C8D8E8E8F90919293D9
:101840009494959698999A9B9C9D9EA0A1A2A4A5DC
:10185000A7A8AAABADAEB0B2B4B5B7B9BBBDBFC156
:10186000C3C6C8CACCCFD1D4D6D9DBDEE1E3E6E922
:10187000ECEFF2F5F8FCFF5555555590B8144EF9BC
:10188000C78A47ED29A341FC0A4C3CD9C575374CA2
:101890009812332163162F5C73762B315329289EBF
:1018A000A126259BEF662210A2E31FDDD7961D55CA
:1018B000537B1BB2668C1919E3C517C80924162D72
:1018C0007FA314933F41134095FA11C50FCD1060CB
:1018D0007CB60F3FDFB40E9E6DC60D8988E90C3FC4
:1018E000B81C0C1EA85E0B0523AE0A1B100A0AF4D6
:1018F0006F71090B5AE30879FA5E08F58FE3070167
:101900006A700752E704075C74A006098A42068CD5
:10191000ACEA055A6A9805375B4B05621F0305CC94
:101920005EBF0470C87F04AE114404C1F50B043AD5
:1019300035D7038A95A5039CE0760371E44A03CB6F
:10194000722103DA60FA02F786D50260C0B202FEA5
:10195000EA91022DE772028B975502C8E0390282A4
:10196000A91F0217DA06028B5CEF015F1CD9017C0C
:1019700006C4011309B00188139D0155168B01FFA0
:10198000027A01FBCB69019F645A0111C14B013DF1
:10199000D63D01BE993001DA01240172051801F922
:1019A0009B0C0167BD01013362F7004B83ED000919
:1019B0001AE4002B20DB00D38FD2007763CA00E546
:1019C00095C2003622BB00CB03B4004C36AD009E5E
:1019D000B5A600E47DA000768B9A00E5DA9400EECF
:1019E000688F007F328A00B3348500C96C8000297B
:1019F000D87B00617477001C3F730028366F00713C
:101A0000576B00FCA06700ED1064007DA56000FF2F
:101A10005C5D00DA355A008C2E5700A6455400CA8A
:101A2000795100AEC94E0018344C00DBB74900DDD7
:101A30005347000F07450070D042000BAF4000F83D
:101A4000A13E005AA83C005EC13A003AEC38003092
:101A50002837008974350097D03300B53B320045F4
:101A6000B53000AF3C2F0065D12D00DC722C009208
:101A7000202B000ADA2900CB9E2800646E2700681C
:101A80004826006E2C2500131A2400F7102300BFEF
:101A900010220014192100A22920001A421F002E32
:101AA000621E0096891D000CB81C004BED1B001433
:101AB000291B002A6B1A0050B319004F011900EFBF
:101AC000541800FDAD1700470C17009C6F1600CF8F
:101AD000D71500B34415001DB61400E62B1400E61C
:101AE000A51300F7231300F5A51200BD2B12002E3D
:101AF000B51100284211008DD210003D6610001D66
:101B0000FD0F0012970F0001340F00D0D30E0067B5
:101B1000760E00AE1B0E008FC30D00F56D0D00C9D3
:101B20001A0D00F8C90C006E7B0C00182F0C00E594
:101B3000E40B00C29C0B00A0560B006D120B001AA8
:101B4000D00A00988F0A00D8500A00CD130A006806
:101B5000D809009D9E09005F660900A22F09005A5E
:101B6000FA08007BC60800FC930800D0620800EE6B
:101B70003208004D040800E1D60700A3AA07008937
:101B80007F07008B550700A02C0700C0040700E466
:101B9000DD060004B8060018930600196F0600025F
:101BA0004C0600CA2906006C080600E2E70500247E
:101BB000C805002FA90500FC8A0500856D0500C633
:101BC000500500B934050059190500A2FE04008F24
:101BD000E404001BCB040042B20400FF990400504F
:101BE0008204002F6B04009A5404008B3E04000012
:101BF000290400F513040067FF030052EB0300B350
:101C0000D7030087C40300CBB103007C9F03009778
:101C10008D03001A7C0300026B03004C5A0300F68C
:101C2000490300FC3903005E2A0300181B03002946
:101C30000C03008EFD020044EF02004BE102009F06
:101C4000D3020040C602002AB902005DAC0200D7F0
:101C50009F02009593020096870200D87B02005BEA
:101C60007002001B650200195A0200514F0200C4A5
:101C70004402006F3A020000000000000000005023
:101C8000C501009ED2010051E001006AEE0100EEA4
:101C9000FC0100DE0B02003F1B0200142B02005F60
:101CA0003B0200254C0200695D02002E6F020079A4
:101CB0008102004E940200B0A70200A4BB02002DD6
:101CC000D0020052E5020014FB02007B1103008ADF
:101CD00028030046400300B4580300DA710300BD36
:101CE0008B030063A60300D1C103000DDE03001DBA
:101CF000FB030007190400D33704008557040026AE
:101D0000780400BD9904004FBC0400E5DF0400879F
:101D10000405003C2A05000D51050001790500214C
:101D2000A2050077CC05000AF80500E5240600129C
:101D30005306009982060085B30600E1E50600B768
:101D4000190700134F0700008607008ABE0700BC72
:101D5000F80700A43408004E720800C8B108001E3D
:101D6000F30800603609009B7B0900DEC2090039D8
:101D70000C0A00BB570A0074A50A0075F50A00D0CA
:101D8000470B00969C0B00D8F30B00AB4D0C0020CA
:101D9000AA0C004C090D00446B0D001BD00D00E98E
:101DA000370E00C2A20E00BF100F00F6810F007F99
:101DB000F60F00756E1000F0E910000B691100E1DC
:101DC000EB11008E72120030FD1200E38B1300C77E
:101DD0001E1400FAB514009E511500D3F11500BD74
:101DE0009616007D40170039EF170017A318003C26
:101DF0005C1900D01A1A00FDDE1A00EBA81B00C8FF
:101E0000781C00BE4E1D00FC2A1E00B20D1F000FE4
:101E1000F71F0045E7200089DE21000FDD22000EBC
:101E2000E32300BEF0240058062600182427003CB7
:101E30004A280002792900ACB02A007BF12B00B6B9
:101E40003B2D00A28F2E0089ED2F00B55531007477
:101E5000C8320014463400E9CE35004663370081AD
:101E6000033900F5AF3A00FC683C00F62E3E004313
:101E700002400047E341006BD2430017D04500BA4F
:101E8000DC4700C3F84900A7244C00DC604E00DDAD
:101E9000AD5000280C53003F7C5500A9FE5700EEC2
:101EA000935A009D3C5D0046F95F0081CA6200E9DB
:101EB000B065001BAD6800BCBF6B0074E96E00F23A
:101EC0002A7200E78475000BF878001C857C00DD21
:101ED0002C800015F0830095CF87002FCC8B00BF9E
:101EE000E68F00252094004B7998001DF39C00920A
:101EF0008EA100A74CA6005F2EAB00C734B000F245
:101F000060B500FCB3BA00092FC00046D3C500E895
:101F1000A1CB002E9CD10060C3D700CF18DE00D724
:101F20009DE400DD53EB00533CF200B258F9008110
:101F3000AA000151330801C1F40F0178F017012EF6
:101F4000282001A59D2801AD52310124493A01F60E
:101F50008243011C024D01A0C856019BD860013389
:101F6000346B01A2DD750131D7800138238C012546
:101F7000C4970176BCA301BA0EB00196BDBC01C2E4
:101F8000CBC9010A3CD7014F11E501894EF301C3CA
:101F9000F60102240D1102E69420025D913002F652
:101FA00005410239F65102C66563025A587502CEE0
:101FB000D1870217D69A024869AE02948FC2024DA9
:101FC0004DD702E3A6EC02EAA0020318401903462B
:101FD00089300372814803BE2D610375937A03072C
:101FE000B894030FA1AF035154CB03BDD7E70370DF
:101FF000310504B2672304FF804204018462049225
:10200000778304C462A504DB4CC804533DEC04DFB1
:102010003B11056D50370527835E0572DC8605F59B
:1020200064B0059525DB057D2707061B743406245F
:1020300015630697149306BC7CC4062B58F706C993
:10204000B12B07CE946107C70C99079825D2077C5E
:10205000EB0C080C6B49083FB187086ECBC70856DC
:10206000C709091AB34D09499D9309DF94DB094853
:10207000A9250A64EA710A111151515555CF03CFB0
:102080005BFFFF4600ACFF540090FF54009EFF70C2
:10209000009EFF3600BAFF7F00ACFF7F0090FF5428
:1020A00000ACFF58009BFF6B00A1FF5800A8FF3257
:1020B00000DAFF4100A8FF6500A1FF650081FF3F36
:1020C00000E1FF13002C005D00FCFF2000CBFFA609
:1020D000FF81FF750020009AFFCBFF6900CBFF5DF9
:1020E00000CBFFC1FFC1FF7F00000081FF000000A7
:1020F000005800000000005800CEFFA8FF00005864
:102100000000007F0081FF7F0081FF7F0081FF7F53
:102110000081FF7F0081FF7F0081FF7F0081FF7FC3
:102120000081FF7F007F0081FF81FF7F007F0081B2
:10213000FF81FF7F007F0081FF81FF7F007F0081A3
:10214000FF81FF00000B040608F10BCD0F9A135717
:1021500017061BA61E3822BB253129982CF32F40C9
:10216000338036B339D93CF33F00430146F748E1A9
:102170004BBF4E915159541657C7596E5C0B5F9D1A
:10218000612564A2661669806BE16D38708672CB3A
:102190007407773A79647B857D9E7FAF81B883B879
:1021A00085B187A1898A8B6C8D468F1991E492A89D
:1021B0009466961C98CB99749B179DB29E48A0D7A5
:1021C000A160A3E3A460A6D7A748A9B3AA19AC79D4
:1021D000ADD4AE29B07AB1C4B20AB44BB587B6BD9E
:1021E000B7F0B81DBA45BB69BC89BDA4BEBBBFCDA5
:1021F000C0DBC1E5C2EBC3ECC4EAC5E4C6DAC7CCB8
:10220000C8BAC9A5CA8CCB6FCC4FCD2CCE05CFDABE
:10221000CFADD07CD147D210D3D6D398D458D514D3
:10222000D6CED685D739D8EAD898D944DAEDDA931C
:10223000DB37DCD8DC77DD13DEADDE45DFDADF6DE2
:10224000E0FDE08CE118E2A2E229E3AFE333E4B47D
:10225000E434E5B1E52DE6A7E61FE795E709E87B5D
:10226000E8ECE85BE9C8E933EA9DEA05EB6BEBD003
:10227000EB34EC96ECF6EC55EDB2ED0EEE68EEC1FB
:10228000EE19EF6FEFC4EF18F06AF0BCF00BF15AE3
:10229000F1A7F1F3F13EF288F2D1F219F35FF3A462
:1022A000F3E9F32CF46EF4AFF4EFF42FF56DF5AA27
:1022B000F5E6F522F65CF695F6CEF606F73DF773F1
:1022C000F7A8F7DCF710F842F874F8A6F8D6F80685
:1022D000F935F963F990F9BDF9E9F915FA3FFA69A9
:1022E000FA93FABCFAE4FA0BFB32FB58FB7EFBA331
:1022F000FBC8FBECFB0FFC32FC54FC76FC98FCB8F2
:10230000FCD9FCF8FC18FD36FD55FD73FD90FDADC4
:10231000FDC9FDE5FD01FE1CFE37FE51FE6BFE858D
:10232000FE9EFEB6FECFFEE7FEFEFE16FF2CFF432E
:10233000FF59FF6FFF84FF9AFFAEFFC3FFD7FFEB8C
:10234000FFFFFFFFFF03ED4EEB9DE9EEE743E69B4A
:10235000E4F6E254E1B5DF19DE80DCEADA57D9C7EA
:10236000D739D6AFD427D3A2D120D0A1CE24CDAA9D
:10237000CB33CABFC84DC7DEC572C408C3A1C13CB8
:10238000C0DABE7ABD1DBCC3BA6BB915B8C2B6728D
:10239000B524B4D8B28FB148B003AFC1AD81AC435E
:1023A000AB07AACEA897A763A630A500A4D2A2A681
:1023B000A17CA0559F2F9E0C9DEB9BCC9AAF99942E
:1023C000987B9764964F953C942B931C920E9103A7
:1023D00090FA8EF38DED8CEA8BE88AE889EA88EE34
:1023E00087F486FB8504850F841C832B823B814DFB
:1023F00080617F767E8D7DA67CC07BDC7AFA791A3F
:10240000793B785D7781760C000C000D000D000E95
:10241000000E000E000F000F001000100011001140
:10242000001200120013001300140015001500160E
:1024300000160017001800190019001A001B001CD4
:10244000001C001D001E001F002000210022002390
:1024500000240025002600270028002A002B002C3D
:10246000002D002F003000320033003500360038D8
:102470000039003B003D003F004000420044004660
:102480000048004B004D004F0051005400560059C9
:10249000005B005E006100640067006A006D007010
:1024A00000730077007A007E008100850089008D2E
:1024B00000910096009A009F00A300A800AD00B212
:1024C00000B700BD00C200C800CE00D400DA00E1B1
:1024D00000E700EE00F500FC0003010B0113011BF7
:1024E0000123012C0135013E01470151015B0165CA
:1024F000016F017A01850190019C01A801B501C21B
:1025000001CF01DC01EA01F90107021702260237B7
:1025100002470258026A027C028F02A202B602CA75
:1025200002DF02F4020B032103390351036A03841F
:10253000039E03B903D503F2030F042E044D046E6A
:10254000048F04B104D404F8041E0544056C0594FA
:1025500005BE05E905160643067206A306D406085D
:10256000073C077307AB07E4071F085C089B08DC00
:10257000081E096209A909F1093C0A890AD80A2931
:102580000B7D0BD30B2C0C870CE50C460DA90D1005
:102590000E790EE60E560FC90F3F10B9103611B85E
:1025A000113D12C5125213E31378141215B01553CE
:1025B00016FA16A61758180F19CB198C1A531B2088
:1025C0001CF31CCC1DAC1E921F7F2073216D22704A
:1025D000237A248B25A526C727F128242A602BA639
:1025E0002CF52D4D2FB0301E3296331835A73641BD
:1025F00038E739993B583D243FFE40E642DB44E052
:1026000046F448174B4A4D8E4FFF3F4B3B02371B5A
:10261000338B2F492C4E2991260E24BE219D1FA6B7
:102620001DD61B281A9B182A17D41597146F135CF4
:10263000125C116D108E0FBD0EFA0D440D990CF841
:102640000B610BD40A4F0AD2095C09ED08840822F9
:1026500008C5076D071907CB0680063A06F705B7C8
:10266000057B0542050C05D804A70479044D042216
:1026700004FA03D403AF038D036B034C032D031043
:1026800003F502DA02C102A90291027B026602513D
:10269000023E022B0219020802F701E701D801C924
:1026A00001BB01AD01A001940188017C01710166AB
:1026B000015B01510148013E0135012D0124011C3E
:1026C0000114010D010501FE00F700F100EB00E42B
:1026D00000DE00D900D300CE00C800C300BE00BA9F
:1026E00000B500B100AC00A800A400A0009C0098B8
:1026F00000950091008E008B008700840081007E91
:10270000007B0079007600730071006E006C006A37
:102710000067006500630061005F005D005B0059B9
:1027200000570055005300520050004E004D004B22
:10273000004A004800470045004400430042004072
:10274000003F003E003D003B003A003900380037B2
:1027500000360035003400330032003100300030E4
:10276000002F002E002D002C002B002B002A00290A
:102770000029002800270026002600250025002427
:102780000023002300220022002100200020001F3F
:10279000001F001E001E001D001D001C001C001C50
:1027A000001B001B001A001A00190019001900185C
:1027B0000018001800170017001700160016001662
:1027C0000015001500150014001400140013001368
:1027D0000013001300120012001200120011001169
:1027E000001100110010001000100010000F000F69
:1027F000000F000F000F000E000E000E000E000E66
:10280000000D000D000D000D005555FA50DE4CFC7A
:10281000485145D941933E793B8B38C6352633AA7A
:1028200030502E162CFA29FA27152649249522F71E
:10283000206F1FFA1D981C491B0A1ADB18BB17A929
:1028400016A515AD14C213E2120D1242118110CA61
:102850000F1B0F740ED50D3E0DAD0C240CA10B24D7
:102860000BAC0A3A0ACE0966090309A4084A08F41F
:1028700007A10753070707BF067A063906FA05BD01
:102880000584054C051805E504B50486045A042F93
:10289000040704E003BA03960374035303330315D8
:1028A00003F802DC02C102A7028E02770260024A2C
:1028B00002350221020D02FB01E901D801C701B76F
:1028C00001A80199018B017D017001630157014C41
:1028D00001400136012B01210117010E010501FC08
:1028E00000F400EC00E400DD00D600CF00C800C119
:1028F00000BB00B500AF00AA00A4009F009A00959D
:102900000091008C00880083007F007B00780074B9
:102910000070006D006A006600630060005D005B8F
:102920000058005500530050004E004B004900472E
:10293000004500430041003F003D003C003A0038A4
:1029400000370035003300320031002F002E002DFB
:10295000002B002A0029002800270026002500243B
:102960000023002200210020001F001E001D001C6B
:10297000001C001B001A001900190018001700178E
:1029800000160016001500150014001300130012A5
:10299000001200110011001100100010000F000FB4
:1029A000000F000E000E000D000D000D000C000CBD
:1029B000000C000B000B000B000B000A000A000AC1
:1029C000000A0009000900090009000800080008C1
:1029D00000080008000700070007000700070007BD
:1029E00000060006000600060006000600050005B9
:1029F00000050005000500050005000500040004B1
:102A00000004000400040004000C050B0F09E8F4A6
:102A1000000C18F4FDFBF8F600020407090CF4F5AD
:102A2000F8F9FBFCFF0001040507080B0CF4FBFEA2
:102A3000FF000102070C0F1C188021F0002102008A
:102A40000800FF023C0000001E55535553000000D3
:102A50000A0B0C0D0E0F10111213000308092B2B7B
:102A600015161718191A1B1F201C000308092B2BF9
:102A70002123242529222627282A000308092B2B75
:102A80000000000000000080808000000040808086
:102A9000800000000060A00000000000000078003E
:102AA000000000000000000080FF000000000000A7
:102AB00000000000043C3C3030000000000000003A
:102AC0000000000000000000000000000000000006
:102AD00000000000000000000000000000000000F6
:102AE00000000000000000000000000000000000E6
:102AF00000000000000000000000000000000000D6
:102B000000000000000000000000000000000000C5
:102B100000000000000000000000000000000000B5
:102B200000000000000000000000000000000000A5
:102B30000000000000000000000000000000000095
:102B40000000000000000000000000000000000085
:102B5000000000000001000404020008060101005A
:102B60000000000F0F10000200010000000800012B
:102B700000040002020002040507090B0C0E1011EC
:102B8000131517181A00A81B2E2611241FBECFEFED
:102B9000D8E0DEBFCDBF11E0A0E0B1E0E0E4F3E7B4
:102BA00002C005900D92A838B107D9F726E0A8E831
:102BB000B1E001C01D92A03CB207E1F71BE2CAE8F8
:102BC000DBE204C02297FE010E940F39C638D1070C
:102BD000C9F70E94DF190C9432360C9400000F9351
:102BE0001F938FB7F8940091890110918A01209169
:102BF0008B0130918C018FBFB801C9011F910F91DA
:102C000008957091E5025091E7029091E6022091BB
:102C1000E2023091E3024091E40280E01AC05F5F7B
:102C2000563069F49F5F903109F490E0E92FF0E0AD
:102C3000EE0FFF1FE851FD4F2081318150E04F5FC3
:102C4000471710F08F5F40E06091E10261506093A0
:102C5000E1026091E1026111E2CF5093E7029093AB
:102C6000E6023093E3022093E2024093E4020895E7
:102C7000985001C09A5F97FDFDCFA0E002C096502A
:102C8000AF5F811526E09207D0F7AC019A01369527
:102C90002795369527953695279536952795BC0126
:102CA0006F70772740E1649FA0011124F901EE0FB6
:102CB000FF1FEB5BFC4D85919491F901EE0FFF1F17
:102CC000E95BFC4D25913491BC01621B730B3327EA
:102CD000649F212D749F200D311D1124821B930BA5
:102CE00001C0C901A1509C0136952795AF3FC9F796
:102CF000909389008093880030938B0020938A0002
:102D00000895FF920F931F93CF93DF938B01EA01F6
:102D10009C01240F351FFC01F12C02C04191F40EDF
:102D2000E217F307D9F7AE01B8010E949A386F2D68
:102D3000C8018C0F9D1F0E94A438CDB7DEB7E5E017
:102D40000C946239AF92BF92CF92DF92EF92FF92D2
:102D50000F93CF93DF937C016B01EA0159010E942D
:102D60008238C6018C0F9D1F0E94923897012C0F4C
:102D70003D1FF70190E002C04191940FE217F30765
:102D8000D9F7891302C0002329F0AE01B501C701AC
:102D90000E943536DF91CF910F91FF90EF90DF9039
:102DA000CF90BF90AF90089580919806883240F4FC
:102DB0000E945A2D0E94332E0E9452340E947D2D73
:102DC00008951F93CF93DF93182FEB018091E803B1
:102DD00080FF03C0812F0E94E61F80915403882347
:102DE000B9F0812F807F803999F4812F8F708930DD
:102DF00079F098819093EA038093E7034FE050E0E5
:102E000068EE73E087EE93E00E94811610925403FF
:102E10001939A9F488816981660F01F1843211F4AE
:102E200080E007C0863211F481E003C08A3219F4D1
:102E300082E00E94301C81E0809353030FC0193B55
:102E400029F4698188810E94CA1C08C01F3931F4A5
:102E500088819981990F11F00E94A431DF91CF915F
:102E60001F910895CF93C82F8091E80380FF06C07B
:102E700040E060E070E08C2F0E94E61F8C2F0E94E3
:102E8000F321CF9108958091940190919501891B30
:102E90008F7029F08091C00085FF26C00CC0809102
:102EA000920190919301891B8F77F1F08091C0007E
:102EB00085FF1AC00CC080919501E82FF0E0E15425
:102EC000FE4F90818F5F8F70809395010BC0809132
:102ED0009301E82FF0E0E153FE4F90818F5F8F77F1
:102EE000809393019093C60008951F920F920FB69E
:102EF0000F9211242F933F934F935F936F937F9380
:102F00008F939F93AF93BF93EF93FF93209186008E
:102F10003091870040919601E0915702F09158025C
:102F20003093580220935702109296018091BA066E
:102F30008F5F8093BA06893010F18091BB06909123
:102F4000BC06A091BD06B091BE06820F931FA11DC5
:102F5000B11D50E060E070E0BA0155274427840FAE
:102F6000951FA61FB71F8E1B9F0BA109B109809348
:102F7000BB069093BC06A093BD06B093BE06FF911E
:102F8000EF91BF91AF919F918F917F916F915F91E1
:102F90004F913F912F910F900FBE0F901F9018955A
:102FA00078941F920F920FB60F9211248F938091F5
:102FB00096018F5F809396018F910F900FBE0F90B7
:102FC0001F90189578941F920F920FB60F921124AC
:102FD0002F933F938F939F93EF93FF9380910803D9
:102FE000909109030196909309038093080320911F
:102FF000E2023091E3028217930748F08091E102E8
:103000008F5F8093E1021092090310920803809170
:103010008D01E82FF0E0E75AFD4F90818F5F8F77A9
:1030200080938D019093B400FF91EF919F918F91C8
:103030003F912F910F900FBE0F901F9018950DB4D8
:1030400007FEFDCF0895CF93DF938091A3058111F3
:1030500013C08091F30598E0899FF0011124ED528F
:10306000FA4F98E0ABECB5E001900D929A95E1F73C
:103070008F5F83708093F305C091CB05D091CC0511
:10308000D0612998DEBD0E941F18CEBD0E941F1876
:10309000299AC091CF05D091D005D0692998DEBD7D
:1030A0000E941F18CEBD0E941F18299AC091D105F9
:1030B000D091D205D0615F98DEBD0E941F18CEBDB1
:1030C0000E941F185F9AC091CD05D091CE05D0699E
:1030D0005F98DEBD0E941F18CEBD0E941F185F9A28
:1030E00081E02091D1053091D205232B09F480E0B5
:1030F000DF91CF9108950F931F93CF93DF93EC014E
:10310000862F162F107F062F0F70103F09F48EC0E8
:103110009091E70309138EC089C0873F39F0BE0143
:103120006F5F7F4F21E04C810E94E116103B09F157
:1031300040F4103991F0103AD1F0103809F081C004
:103140000AC0103E09F441C0103F09F449C0103DC7
:1031500009F077C036C0898107C06A8189816623FA
:1031600019F00E945B336DC00E94A4326AC08A814C
:1031700029C089818B3799F038F4893769F008F0D4
:1031800060C08837D1F405C08C3761F08038A8F46E
:1031900058C00E941C3455C00E94552D52C00E9438
:1031A00091324FC00093E7034FE050E068EE73E0C8
:1031B00087EE93E00E94811644C06A810E94153315
:1031C00040C089810E944F2D3CC02A81898190E0B6
:1031D00030E8239F800D911D11240E94252D31C0C0
:1031E000083081F018F4002349F02BC00A3091F028
:1031F00040F10B3079F00C3021F50FC089810E942D
:1032000032171FC0809198068832D8F481E00E945E
:10321000F13017C00E94D41614C0809198068832ED
:1032200080F40E9425340E94802D0BC0803F09F05D
:1032300074CF7CCFBE016F5F7F4F20E04C810E9436
:10324000E116DF91CF911F910F910895229A089571
:10325000259A239A24980E9426192A9A0E942619B0
:103260002A9A8DB58E7F8DBD8DB581608DBD80E52F
:103270008CBD08955E980895A1E0B0E0E2E4F9E124
:103280000C9448395A985A9A18E080E0982F990F70
:1032900089B185FB882780F9892B5E9A89830E94F2
:1032A0003A19115089811111F1CF2196E3E00C9464
:1032B00064390F9378941092C10084B714BE809142
:1032C0006000886180936000109260008091C0006F
:1032D0008D7F8093C0001092C50087E28093C40068
:1032E0008091C10088608093C1008091C10080619D
:1032F0008093C10000E021E43AE24FE050E068EE44
:1033000073E087EE93E00E94A2160E94281C0E94A0
:1033100068341092BF060E942819219A579A0E9479
:103320002619209828980E9496220E943C1982FD16
:1033300015C00E94A42F01E021E43AE24FE050E0E2
:1033400068EE73E087EE93E00E94A2164FE050E033
:1033500068EE73E087EE93E00E94811685B5887F62
:10336000826085BD84B58C7F816084BD80916E0054
:10337000816080936E008091B100887F816080932E
:10338000B1008091B0008C7F81608093B00080910B
:103390007000816080937000539A8091B0008062C9
:1033A0008093B00081E08093800082E1809381006F
:1033B000809180008062809380000F9108950E9428
:1033C0005919809191018093900188ED94E00E94B9
:1033D000722B80918C04882309F4C3C080919C06D1
:1033E000823008F0C3C080919D06823008F0BEC0D4
:1033F00080919E06823008F0B9C08091A40688238F
:1034000009F4AFC0B3C080910F038111AFC0B1C048
:103410000E94CC1E613E73498440910510F01092C9
:103420005303809198068832E0F00E940116C82F5D
:1034300004C080E00E94F130C150C111FACF109257
:10344000970180918E0190918F01891B8F7171F48A
:103450007CC080E00E94F130809197018150809380
:103460009701809197018111F4CFEBCF80918F016B
:10347000E82FF0E0E156FE4F60818F5F8F718093FF
:103480008F01683F28F088E991E00E947B18D9CF2E
:1034900067FF38C010929C0181E080939D01862FC8
:1034A000807F803A99F028F4803881F08039B1F437
:1034B0000DC0803E59F0803F19F0803B79F406C082
:1034C000862F8F70982F9150923020F482E0809355
:1034D0009D0104C0843010F010929D01673F51F4AB
:1034E00080919801803F19F487EF0E943217109263
:1034F000980112C060939801603F71F480EF0E94C0
:1035000032170AC080919C01E82FF0E0E856FE4F88
:1035100061838F5F80939C0190919C0180919D01BC
:10352000981708F48ECF6091980188E991E00E9485
:103530007B1810929C0180919801813F08F481CF03
:1035400010929D01109298017CCF0E94F9348091D5
:103550009601813218F085E08093BF060E945824BE
:1035600034CF80915303882309F44DCF0E940D1E60
:103570004FCF0E94F91C4CCF78941F920F920FB638
:103580000F9211241F932F933F934F935F936F9349
:103590007F938F939F93AF93BF93CF93DF93EF93DB
:1035A000FF9380919E0180FF13C00E9423188823FF
:1035B00039F08091B1059091B2050E94381608C08B
:1035C000109289001092880010928B0010928A004D
:1035D0008091C00087FF0CC092C080918E01E82FBF
:1035E000F0E0E156FE4F90838F5F8F7180938E01E4
:1035F0000E9443170E943C19D82F87FF09C0809171
:10360000030187FD05C0809197018F5F809397012B
:1036100080910301D6FF7FC086FD09C088ED94E04C
:103620000E94882B04C088ED94E00E94BE2BD093AA
:103630000301C091550480919405833008F46EC055
:103640001092A5058091D604882321F0C06881508E
:103650008093D60480919E018770C1F58091880186
:10366000982F9A59909388019D37E8F0875180935D
:1036700088012091890130918A012F5F3F4F30935B
:103680008A01209389012091890130918A01232B9D
:1036900051F420918B0130918C012F5F3F4F30937B
:1036A0008C0120938B01EFE4F2E090E88081880F99
:1036B000292F2D2309F401C08160808396953196CE
:1036C00082E0E735F80791F70E9457255A985C98F1
:1036D000D8E010E80E943A19812F8C2311F05C9AEF
:1036E00001C05C9816955E9AD150A1F70E943A19D4
:1036F0005A9A80919E018F5F80939E0115C0909190
:10370000C60080918F0120918E018150821B8F71A4
:1037100009F46ECF62CF86FF8ACF85CF8091A50551
:1037200081118ECFC0648CCFFF91EF91DF91CF914B
:10373000BF91AF919F918F917F916F915F914F91C9
:103740003F912F911F910F900FBE0F901F901895D2
:103750001092980110929C0110929D012091D90223
:103760003091DA024091DB025091DC026091DD027F
:103770007091DE028091DF029091E002A1E00E9450
:1037800070392093D9023093DA024093DB025093D0
:10379000DC026093DD027093DE028093DF0290937F
:1037A000E0020895A0E0B0E0E8EDFBE10C944339BD
:1037B000F62ED42FC22F082F10E020E030E0C901F0
:1037C000B801660F771F881F991F645274408A4F93
:1037D0009F4FA9019801E2E0220F331F441F551F9C
:1037E000EA95D1F70E94F1386901EF2DF0E0EE0F74
:1037F000FF1FE65AFE4FE080F18008EE12E0F7016D
:10380000859194919C01D6010E9413399B01AC01D2
:10381000AD2FB0E00E942E398C0D9D1DF8018193D3
:1038200091938F01F2E0EF0EF11C83E0083018074E
:1038300031F78091E8029091E9029093E30280933E
:10384000E202C093E502CDB7DEB7E8E00C945F3941
:103850008DE2E4E1F3E0DF011D928A95E9F7089536
:103860001F93CF93DF93C82F162F0E94EF156093FD
:103870000B0370930C0380930D0390930E038FE062
:10388000C89FD0011124AC5EBC4F11961C921E92B1
:1038900015961C921E92149719961C921E921897B8
:1038A00086E0C89FE0011124CF5BDC4FE981F0E0A6
:1038B000EE0FFF1FE75FF94D8591949116968C935B
:1038C000169717969C931797EB81F0E0EE0FFF1F6A
:1038D000E75FF94D859194911A968C931A971B96F0
:1038E0009C931B972D81129F112D11241E961C93C2
:1038F00081E080930F03DF91CF911F910895CF92C4
:10390000DF92FF920F931F93CF93DF93F62EFF0C5E
:10391000FF0CE62FE295E695E695E370982F990F58
:10392000990F980FE90FF0E0EF01CC0FDD1FCE5C8F
:10393000DE4FC880D980EE0FFF1FEC5CFE4F608128
:10394000718106E0809FD0011124AF5BBC4F20E065
:1039500030E0FB01E20FF31FC491F601E20FF31F09
:10396000E4911E2F4F2D5C2F549FC0014095149F52
:103970004095800D911D11249D932F5F3F4F253061
:10398000310539F7DF91CF911F910F91FF90DF90B3
:10399000CF900895982F90519F3050F4E82FF0E089
:1039A000E252FF4FE491F0E0EF5BFC4F660F608363
:1039B0000895809590E043E0959587954A95E1F7C5
:1039C00080931303089587FD05C09FEF90934603EE
:1039D000880F05C0880F8095809346038FEF8093F2
:1039E0004C0380914C0390E095958795809352030A
:1039F000089580911103882371F090911003992309
:103A000021F091509093100306C09FEF9093100304
:103A1000815080931103209111030BC080910A0300
:103A2000E82FF0E0E75AFD4F20838F5F8F77809378
:103A30000A0380918D0190910A038150891B8F7731
:103A400069F70895A0E0B0E0E8E2FDE10C944339A5
:103A50002091010130910201A6E1B3E0C5E4D3E079
:103A600082E293E0C12CD12C1896ED91FC9119972C
:103A700016966D917C9117976E0F7F1F17967C930A
:103A80006E9316976E177F0750F46FEF7FEF1796C0
:103A90007C936E93169719961C921E921897169601
:103AA0000D911C91179766E775E1FB01E10FF11D80
:103AB000002F65911590019DF0010095069FE00D86
:103AC000F11D11246F2FFC010081069F612D11242F
:103AD000329760831496ED91FC91159712966D9133
:103AE0007C9113976E0F7F1F13967C936E931297A2
:103AF0006E177F0750F46FEF7FEF13967C936E93F2
:103B0000129715961C921E921497FE0134975081BD
:103B100040E0D11012C0B901769567952170332726
:103B20003195219531092227347B26273727688153
:103B3000369FB0011124460F571F12960D911C910C
:103B4000139766E775E1FB01E10FF11D002F659109
:103B50001590019DF0010095069FE00DF11D1124C7
:103B60006F2FFE0132977081769FB0011124640F90
:103B7000751F072F1127F801EE0FFF1FE95FFB4D9F
:103B8000E590F490F801EE0FFF1FE75FFB4D059104
:103B900014910E191F09FF27069FE12D169FE00DB6
:103BA000F11D1124EE0DFF1D1196FC93EE93189656
:103BB0006D917C911997672B11F0CC24C394D39409
:103BC0001F9626960F96F3E0DF124ECF3093020138
:103BD00020930101C0920F0330914B0320912F03DA
:103BE000239F812D1124809330033095239F212D15
:103BF000112420932F03809134039091350366E0C4
:103C0000969587956A95E1F79093350380933403F1
:103C1000CDB7DEB7E8E00C945F39EF92FF920F93D7
:103C20001F93CF93DF93E0901103F09012039EC097
:103C30000E94221DC09102012091140330911503AE
:103C40006091230370912403409132035091330318
:103C5000D0E2F39489E4C89FC02D1124CF5F8091F6
:103C6000160390911703280F391F80912503909117
:103C70002603680F791FE0913403F09135034E0F4E
:103C80005F1FE32FFF27EB58FB4EA591B4910B2F3D
:103C90000A1B0203012D1124112707FD10950A0F9D
:103CA000111DA7FD1A95109120030103812D1124E8
:103CB000E72FFF27EB58FB4E149100912F031003C1
:103CC000B12D1124109130030C2F0103A12D1124CB
:103CD000FA01F695E795F695E795F695E795F69549
:103CE000E795EC58FB4F149100913E031003E12D32
:103CF0001124909113039F15F8F4992787FD90954F
:103D000080589F4F8B0F911DB7FD9A958A0F911D7B
:103D1000A7FD9A958E0F911DE7FD9A958F3F91050E
:103D200009F01CF497FD04C005C08FEF90E002C0BD
:103D300080E090E0E82EF12C80910A03E82FF0E07B
:103D4000E75AFD4FE0828F5F8F7780930A03D1504F
:103D500009F07FCF3093150320931403709324034D
:103D600060932303509333034093320380918D017A
:103D700090910A038150891B8F77803208F058CFC9
:103D8000E0921103F09212038FEF80931003CDB7EE
:103D9000DEB7E6E00C9461390F931F930E94EF1594
:103DA0008B019C0180910B0390910C03A0910D035A
:103DB000B0910E03081B190B2A0B3B0BB801C9016C
:103DC0001F910F910895AC018827469F912D579F11
:103DD0009001749F900D211D381F569F900D211D3D
:103DE000381F1124C9010895209101013091020169
:103DF000C901817099279195819591098827947BB4
:103E0000369527958227932790930201809301018D
:103E10000895A0E0B0E0EFE0FFE10C944339EC013D
:103E2000EA89F0E0E830F10508F082C0EC5CFF4F71
:103E30000C940D398C819D81AE81BF81AC01BD0197
:103E4000FFE07695679557954795FA95D1F7B7FDB9
:103E50006FC019C04C815D816E817F814095509506
:103E600060957095442777FD4395552766277727FA
:103E7000415051095DC04E815F815AC08C819D8146
:103E8000AE81BF81AD014095509552C08B8988238A
:103E9000B9F00E94F41E80910101909102010EC0C0
:103EA0008B89882369F00E94F41E8091010180FFB4
:103EB00003C08FEF9FEF02C080E090E09B878A876E
:103EC0004A855B8535C08B89882361F08C859D850B
:103ED0009B878A870E94F41E8091010190910201C4
:103EE0009D878C878C819D81AE81BF81BD01882794
:103EF00099272C853D850A851B850217130748F4F1
:103F0000C901801B910B0E94E31EAC01400F511FA1
:103F10000FC0C801821B930B0E94E31EA801481B1F
:103F2000590B06C00E94F41E4091010150910201FC
:103F3000C880D980EA80FB800C811D812E813F8161
:103F40000C0D1D1D2E1D3F1D0C831D832E833F83D5
:103F500081E00C151D052E053F0508F080E08B8BD8
:103F6000CA01CDB7DEB7E8E00C945F3990919401B7
:103F7000E92FF0E0E154FE4F8083892F8F5F8F702F
:103F800080939401089590919201E92FF0E0E1531C
:103F9000FE4F8083892F8F5F8F77809392010895E2
:103FA000A2E0B0E0E6EDFFE10C9449394A83698371
:103FB0000E94C31F6981862F0E94C31F4A81842FDC
:103FC0000E94C31F2296E2E00C9465391F93CF93A1
:103FD000DF93EB01142F0E94C31F112341F088814E
:103FE0000E94C31F113019F089810E94C31FDF9105
:103FF000CF911F910895909193012091920191503A
:10400000921B9F77C1F30E94C31F0895DC01129693
:104010009C9112979923F1F09330E1F0943031F4B0
:10402000E62FF0E0E958F94E8491089513963C91FB
:10403000139714962C912F5F231B269F812D1124FB
:10404000830F953051F48F3E18F4883228F008958C
:1040500080EF0895862F089580E008950F931F93B1
:10406000CF93DF93EC01062F8A81882371F0833090
:1040700061F010E0612FCE010E940620801721F030
:104080001F5F1F3FB9F702C0012F802FDF91CF9133
:104090001F910F910895CF93C82F80910401C817E5
:1040A00071F086E0C89FB0011124685B7E4F46E046
:1040B00050E085E593E00E943536C093040185E524
:1040C00093E0CF910895843730F4E82FF0E0E05B7F
:1040D000FD4F849108958FEF08951F93CF93DF9341
:1040E000EC018881811128C08A81833011F5E62F87
:1040F000F0E0E958F84E149117FF0BC040E06981D9
:1041000088ED94E00E94F127412F440F69816F5F91
:104110000BC0412F440F4095698188ED94E00E94C7
:10412000F12769816F5F40E088ED94E00E94F127FC
:1041300008C0462F6981F8CF813019F489810E9427
:10414000F62CDF91CF911F910895FC0180818111A0
:1041500005C0E181F0E0E852FB4F06C0813031F448
:10416000E181F0E0EA56F94F808108950895CF93F8
:104170008091050190E0C096E0910601F0E0E25FD9
:10418000F54DE4918E0F911DE7FD9A95E0910701A1
:10419000F0E0ED5EF54DE4918E0F911DE7FD9A95EF
:1041A000E0910801F0E0E25EF54DE4918E0F911D83
:1041B000E7FD9A95E0910901F0E0E35DF54DE491AA
:1041C0008E0F911DE7FD9A9501C00C968C309105DC
:1041D000E4F301C00C9781369105E4F720915B036D
:1041E00030E08217930761F0C82F64E60E945B33CA
:1041F00080915B038F3F11F00E94A432C0935B0358
:10420000CF91089590E0FC01E75FF54D2491269F42
:10421000612D1124FC01EB5FFE4F60830E94B720EB
:1042200008958FEF80935B030E94B720089582303A
:1042300059F028F4882391F0813079F412C083304A
:1042400031F0843051F406C026E936E00CC025EF89
:1042500035E009C025E736E006C0089527EE33E0D3
:1042600002C028ED34E0C901089510926303109252
:10427000620382E080935F0386E693E09093650398
:104280008093640380915C03813019F0813189F45B
:104290000BC0E0915D03F0E0EA5CF54DE491E09342
:1042A00060031092610308951092610310926003FD
:1042B000089583E080935F030895A0E0B0E0E3E613
:1042C000F1E20C94413906E31AE2D12C8D2D0E94C3
:1042D0001721B82EF92EF801A490CBE3DAE2FE0103
:1042E00084910E94FB1F2196FAE2C134DF07B9F7DF
:1042F00081E00E94FB1F8D2D0E94FB1FCB2DDF2D27
:10430000C12C0DC07E012991C20E822F82958F7023
:104310000E94FB1FF70180818F700E94FB1F8C2F72
:104320008B198A1578F32C2D822F82958F700E941D
:10433000FB1F8C2D8F700E94FB1F87EF0E94FB1FBD
:10434000D3940F5F1F4F85E0D812C0CFCDB7DEB733
:10435000EAE00C945D39CF93DF9380915C03813068
:1043600021F0813109F03CC039C0C0915D038C2F30
:104370000E941721EC2FF0E0EA5CF54D449126E60F
:1043800033E050E0B9010E943E36C43019F40E9477
:10439000882F1BC0C11119C080E0E7EEF3E0C19186
:1043A000D0E0C80FD11D8C2F93E0E63FF907B9F795
:1043B0004FE050E068EE73E087EE93E00E949A3899
:1043C0006C2F87EF93E00E94A4380E94CC2C0E94AF
:1043D000DC2C88ED94E00E948A2702C00E945D21B7
:1043E000DF91CF910895803F41F410925E031092C7
:1043F00063031092620310925F0390915F03913008
:1044000019F130F09230A1F1933009F08EC076C0EE
:104410002091620330916303F901E55CF54DE4916D
:10442000E8136AC02F5F3F4F30936303209362030A
:104430002630310508F479C081E080935F03109243
:104440006303109262030895209162033091630325
:10445000F901E45AFC4F8083C901019690936303EC
:1044600080936203029709F060C00E94352108958D
:1044700060916203709163039B013695279540918B
:1044800064035091650360FF1BC0FA01E20FF31F44
:104490008F709081982B908380916003909161033D
:1044A00028173907A8F4E0916403F0916503E20F3F
:1044B000F31F80915E039081890F80935E0308C093
:1044C000682F862F8295807FFA01E20FF31F808389
:1044D00020916203309163032F5F3F4F309363035A
:1044E0002093620380916003909161030196880F8D
:1044F000991F28173907C8F083E015C0873F91F44A
:10450000E0916403F09165038091600390916103F1
:10451000E80FF91F90915E038081981303C00E94F9
:10452000AB21089585E080935F030895569A529ACF
:1045300055985A9A5E9848E050E06FEF70E08FE42B
:1045400092E00E944736569A529A549A5A9A10927A
:1045500051043B9A439A3C9A449A87B1876087B941
:1045600080E480930001EAE7F0E080818760808347
:1045700080818068808385E480937C008081806472
:1045800080834EE050E064E070E087E294E00E94B7
:1045900047364EE050E061E070E087E194E00E9431
:1045A00047360895282F30E0F901E95DFB4F8A3046
:1045B00010F488E001C084E080830895CF93C82F71
:1045C00080919101809390014AE050E060E170E0B9
:1045D00087E294E00E94473661E06C274AE050E0B1
:1045E00070E087E194E00E9447364CE150E06FEFC5
:1045F00070E08BEF93E00E9447361092FA03CF9160
:10460000089590915104933061F421E030E001C0AD
:10461000220F8A95EAF78091E80382278093E803C6
:10462000A4C0E82FF0E0EE30F10508F0AFC0E45C84
:10463000FF4F0C940D39109254041EC081E08093FA
:1046400054040E94DE22089580918B04882389F00F
:104650008091F505E82FF0E0EB50FA4F9FEF918342
:104660008F5F8093F505803809F090C00E94313447
:10467000089582E08093540480E0E3CF80918C041D
:10468000882329F00E9425340E94802D08950E94DD
:104690005A2D0E94332E0E9452340E947D2D08957F
:1046A00080918B04882351F081E0809325040E943F
:1046B0003134109225041092F60308950E943F347D
:1046C000089580918B04882341F08091F505E82FAF
:1046D000F0E0EB50FA4F9EEFC2CF8091F6038823B3
:1046E00019F01092F60304C08091D704882319F0C2
:1046F0000E940033089580918E04882309F446C0F7
:1047000081E08093D704089581E080935403089555
:1047100083E015C08091E9038F5F8C3018F480939B
:10472000E90302C01092E9034FE050E068EE73E045
:1047300087EE93E00E9481160E94E52C81E0809331
:10474000510408950E94E434089580E09EE190931E
:10475000EE038093ED0385E593E59093F00380935A
:10476000EF039093F2038093F1034FE050E068EE83
:1047700073E087EE93E00E94811608950E94112154
:1047800081E08093F60308950E945D210895A0E0E2
:10479000B0E0EDECF3E20C944339C82FD62E8091B3
:1047A000F603882349F0C53038F0CA3028F48C2F3E
:1047B00085500E9402215CC08C2F0E94D2228091E1
:1047C0005404D0E0FE0190E1899FE00DF11D112419
:1047D000E05BF54DC490DE01A95EBB4F8C91811169
:1047E00037C08E01000F111F05501C4FF8012081AA
:1047F00031812F3F3F4F69F48C2D0E944B207C016B
:104800000E94A520682FC7010E942E20F8018083F6
:104810001182DE01AA0FBB1FA550BC4F2D913C9108
:104820002D193109A901495F5F4F4F30510540F4FF
:10483000DE01A95EBB4F81E08C931092FA0308C0A1
:104840001216130614F481E001C08FEF8093FA036F
:10485000C95EDB4F8881882359F08C2D0E944B2044
:10486000EC016D2D0E940620682FCE010E946D2064
:10487000CDB7DEB7E8E00C945F3980918E048111EA
:1048800016C080918C04811112C0809194058430EF
:1048900071F40E94CC1E613177428105910538F098
:1048A00081E0809325040E94912F109225040895A1
:1048B00028C090919101E92FF0E0EE0FFF1FEA5A16
:1048C000FB4F208161819F5F9F7090939101922F98
:1048D00092959F7096959695822F8F73933019F4C9
:1048E0000E94012304C0911102C00E94C7230E94AC
:1048F000EF15609376047093770480937804909317
:1049000079048091900190919101891B8F7089F6B3
:1049100080915403882319F082E0809351040E940F
:10492000EF152091760430917704621B730B653C80
:10493000794020F0109251041092FA030E94EF1572
:104940002091760430917704621B730B61317742BA
:1049500060F00E943D240E94EF15609376047093EE
:1049600077048093780490937904089540915204D9
:10497000405E409352045091510451111AC08091ED
:10498000A805481710F020E001C028E080919405A8
:10499000833008F461C080918C04882329F18091D0
:1049A0008A0490E0019783709927892B09F456C0F7
:1049B0001BC0513079F48091E90363E00E94E5382F
:1049C000292F88E090E0382F01C0330F2A95EAF7AD
:1049D000232F0AC0523039F42091E7032770220FA9
:1049E000220F220F01C020E060918B04662399F012
:1049F0002091F505237071F030E02150310981E0FC
:104A000090E001C0880F2A95EAF7282F220F220F85
:104A1000220F01C020E08091FA03882321F014F0D6
:104A200020E201C028E061111BC0809125048111A2
:104A300017C019C0533019F48091E8038F73909117
:104A4000D704911104C09091F603992311F04111FC
:104A500080E080935504089520619DCF2062C4CFEB
:104A6000822F8760E7CF84E090E00090540402C07A
:104A7000959587950A94E2F7822BDCCF282F822F19
:104A80008295807F24E0829FC00111246F73682B80
:104A900080919001E82FF0E0EE0FFF1FEA5AFB4FE4
:104AA000608341838F5F8F708093900108950F938F
:104AB0001F93CF93DF930E94B6248091F90388233C
:104AC00021F081508093F90358C0C1E5D2E010E095
:104AD00001E089918F37F9F480915304902F982346
:104AE00021F080278093530416C0809152028111D7
:104AF00005C082E08093530466E001C060E0610F6E
:104B000041E083E00E943E258DE38093F9031092FB
:104B1000F8031092F703000F1F5F1630D1F62091B3
:104B20005202203809F486C080915402803809F47A
:104B300081C0222309F483C080915402882309F4A0
:104B40007EC08091F7039091F803883C9440A9F4CB
:104B5000211107C041E06CE083E00E943E2582E025
:104B60000AC080915402811108C041E06DE083E0E9
:104B70000E943E2588E080935304809178009091B4
:104B80007900592F40E0482B60912604E62FF0E091
:104B90009F01220F331FD901AB5CBB4F8D919C91BC
:104BA000841B950B97FF03C0919581959109E95D51
:104BB000FB4FE081F0E08E179F077CF0F901EB5C82
:104BC000FB4F5183408380910A01811106C05695A5
:104BD0004795569547950E943E25439A449A809161
:104BE00026048F5F809326048E3049F410922604A9
:104BF00080910A01882319F0815080930A01E09185
:104C00002604F0E0E859FE4F808183FF02C04498FB
:104C100001C0439898B18770987F892B88B980919B
:104C20000001856080937C0080917A00806480938D
:104C30007A000FC01092F8031092F7037ACF809198
:104C4000F7039091F80301969093F8038093F7038C
:104C500078CFDF91CF911F910F9108952091D902C4
:104C60003091DA024091DB025091DC026091DD026A
:104C70007091DE028091DF029091E002A1E00E943B
:104C800070392093D9023093DA024093DB025093BB
:104C9000DC026093DD027093DE028093DF0290936A
:104CA000E0020895282F649FC0014095249F4095FD
:104CB000800D911D1124892F0895AC018827469FEE
:104CC000912D579F9001749F900D211D381F569F65
:104CD000900D211D381F1124C9010895AC013327FF
:104CE000469F212D5603200D311D1124C901089521
:104CF000AC013327469F212D569F200D311D1124D5
:104D0000C9010895CF93DF93EC01CB01BA01C81715
:104D1000D90738F48C1B9D0B0E945D26C80FD91F44
:104D200008C09E01281B390BC9010E945D26C81BC3
:104D3000D90BCE01DF91CF910895CF92DF92EF9200
:104D4000FF920F93DC0184E0689FF0011124E95881
:104D5000F74EC590D590E590F490CC921196DC92E8
:104D600011971296EC9212971396FC92139784E087
:104D7000489FF0011124E958F74E459155916591EE
:104D8000749114964C93149715965C9315971696F8
:104D90006C93169717967C93179784E0089FF00101
:104DA0001124E958F74E45915591659174911C96DF
:104DB0004C931C971D965C931D971E966C931E97A3
:104DC0001F967C931F9756961C92569757962C9336
:104DD000579758961C92589759962C930F91FF907D
:104DE000EF90DF90CF9008950F931F93CF93DF93B1
:104DF000EC011E8DFC0184E0189FE00DF11D1124D3
:104E000080819181A281B38149A55AA56BA57CA51A
:104E1000480F591F6A1F7B1F49A75AA76BA77CA77A
:104E2000481759076A077B0718F569A17AA14FEF60
:104E30005FEF8F8D98A10E948226212F2F5F243053
:104E400019F09CA38BA302C01CA21BA28BA19CA146
:104E500098A38F8FFE01E20FF11DE20FF11D8489EF
:104E600095899AA389A32E8F19A61AA61BA61CA6FC
:104E70008E8DFE0194E0899FE00DF11D112480814B
:104E80009181A281B381892B8A2B8B2B39F189A542
:104E90009AA5ABA5BCA5BD0188279927272F332745
:104EA000F901EE0FFF1FED5BFE4D05911491F90125
:104EB000EE0FFF1FEB5BFE4D25913491C901801B66
:104EC000910B0E947826AC01400F511F69A17AA175
:104ED0008F8D98A10E9482269CA38BA38BA19CA15D
:104EE000DF91CF911F910F910895623071F067307B
:104EF00019F0613071F405C0FC01EE50FF4F440F12
:104F000007C0FC01E351FF4F03C0FC01E251FF4F1A
:104F100040830895A0E0B0E0E0E9F7E20C94443962
:104F2000EC010F852E854D856C858C5B9F4F0E9413
:104F30009D264D85042F20E06C85CE018F589F4F14
:104F40000E949D261889DE01A153BF4F1C92FE01CD
:104F5000E253FF4F1082FC84ED84DE840F85133012
:104F600018F481E08C9330C0812F8A508637D0F4BA
:104F7000110F412F60E08F2D0E945226F82E412FF5
:104F800060E08E2D0E945226E82E412F6FEF8D2D6E
:104F90000E945226D82E412F68E0802F0E94522670
:104FA000082F12C010581D3768F4412F440F6FEFBF
:104FB00080E00E945226082FDD24DA94E12CFF24A1
:104FC000F39402C081E080832D2D4E2D6F2DCE01F4
:104FD00082569F4F0E949D26CDB7DEB7E7E00C9426
:104FE0006039EF92FF921F93CF93DF931F92CDB75B
:104FF000DEB77C01FC01E60FF11D108140836C508F
:10500000663020F449830E948A274981141729F0C9
:10501000F701E453FF4F81E080830F90DF91CF9140
:105020001F91FF90EF9008950F93CF93DF93EC01C2
:1050300000E020E83AE24CE150E060E070E00E94DD
:10504000A216FE01EC5BFF4F8FEF9FEF958B848BD9
:10505000138E128E158E148E10861186128613866C
:10506000108A118A128A138A24E0268FFE01E256E2
:10507000FF4F958B848B138E128E158E148E108697
:10508000118612861386108A118A128A138A268F35
:10509000FE01EF58FF4F958B848B138E128E158E69
:1050A000148E1086118612861386108A118A128A2F
:1050B000138A268FFE01E751FF4F11821082FE01F5
:1050C000E553FF4F1082FE01E453FF4F1082FE01B3
:1050D000E353FF4F1082FE01EE50FF4F8FEF8083AE
:1050E000FE01E253FF4F1082FE01E153FF4F108299
:1050F000FE01E551FF4F80E090E291838083FE0145
:10510000E351FF4F1082FE01E251FF4F1082FE017A
:10511000E151FF4F1082CE010E948A27DF91CF918B
:105120000F91089585519F4FFC017183608308950D
:1051300081519F4FFC0160830895DC01A256BF4F4F
:1051400094961C921E92939790961C921E925F9733
:105150005C962D913C915D9792963C932E939197FE
:1051600044E05E964C935E9799961D921D921D9217
:105170001C929C97DC01AC5BBF4F94961C921E92D4
:10518000939790961C921E925F975C962D913C91FE
:105190005D9792963C932E9391975E964C935E9773
:1051A00099961D921D921D921C929C97FC01EF589E
:1051B000FF4F14A213A210A2178E848D958D92A377
:1051C00081A3468F11A612A613A614A60895FC016A
:1051D000E551FF4F20E030E231832083FC01E351B1
:1051E000FF4F1082FC01E251FF4F1082FC01E151A0
:1051F000FF4F10820895A3E0B0E0E1E0F9E20C94E3
:1052000039399B838A83FC01E45EFE4F6080DC01B8
:1052100054968C9154979E968C939E975596EC91AC
:10522000E23080F0B4E0EB9FF0011124E958F34E36
:1052300085919591A591B491EA81FB81848F958F99
:10524000A68FB78FAA81BB815696EC91F0E0F595B9
:10525000E795EE0FFF1FEE0FFF1FE950F24E85910D
:105260009591A591B491EA81FB8180AB91ABA2AB02
:10527000B3AB2789E351FF4F27FD07C05080220FB2
:10528000352D239F712C112407C070802095220F8B
:10529000472D249F512C11248A819B814C960E947A
:1052A000091F7C016C0150E8D51A8A819B81C09648
:1052B0000E94091F90585C01EA81FB81E053FF4F77
:1052C000F0828A819B818F589F4F0E94F4264C0167
:1052D000AA81BB81AD51BF4F2D913C911197EA81BD
:1052E000FB81EF51FF4F80819181820F931F8217C5
:1052F000930718F09183808306C08FEF9FEF91830F
:1053000080831D921C9260817181EA81FB81E95149
:10531000FF4F80819181EA81FB81EB51FF4F00813A
:105320001181081719073CF4801B910B0E945D2620
:10533000800F911F0AC0D801A81BB90BCD010E9494
:105340005D26F801E81BF90BCF01EA81FB81E751EB
:10535000FF4F91838083EA81FB81E551FF4F2081DC
:105360003181305245E0359527954A95E1F7280F70
:10537000391FAA81BB814C9156E04503A00111243D
:10538000942F80E0280F391F11968C911197280FC8
:10539000311D87FD3A954B2D552D4503512C112478
:1053A000250D311D57FC3A95FD01E752FF4F318322
:1053B000208312964C9160E84603B0011124620FDD
:1053C000731F882777FD8095982F0E944E371B0109
:1053D0002C01AA81BB8113966C91772767FD70958C
:1053E000872F972F0E944E3720E030E040E850E4AE
:1053F0000E941F389B01AC01C201B1010E944F36CF
:10540000562E382E492EEA81FB816481C4017983AE
:105410000E9478268C017981652D832D942D0E9420
:105420001B372B0154E0169507955A95E1F7400E6E
:10543000511EAA81BB8115966C91C6010E946E26F1
:10544000DC0164E0B595A7956A95E1F7A40DB51D5B
:105450008091ED039091EE03A115EEE1BE073CF4BF
:10546000A81BB90B2091EF033091F00306C0A81BD5
:10547000B90B2091F1033091F2030E942739985F14
:1054800097FD05C08115F0E19F0724F405C080E079
:1054900090E002C08FEF9FE028E0629E800111241F
:1054A000EA81FB81E00FF11FE550FF4F918380837C
:1054B000AA81BB8116966C91C4010E9478264C018A
:1054C000EA81FB816781C7010E94782696958795BE
:1054D000969587959694879496948794880D991DB0
:1054E000959587959595879597FD05C08115F0E170
:1054F0009F0724F405C080E090E002C08FEF9FE09A
:10550000EA81FB81E00FF11FE350FF4F918380831D
:105510008A819B818C5B9F4F0E94F4267C0160E80E
:10552000AA81BB815A968C915A97681BFD01E7525C
:10553000FF4F808191819E510E946E26880F991F96
:105540004C01B2EE9B1AEA81FB812085205830E4A1
:105550002303C0011124880E991EE251FF4F608180
:1055600070E0670D711DEA81FB81E151FF4F708092
:10557000F0E7F71538F424E0729E600D711D1124D8
:10558000605C71406F3F710510F06FEF70E0C50116
:105590000E946E265C01E3E0B594A794EA95E1F7DA
:1055A000A80CB91CAA81BB811A968C911A97FD018F
:1055B000EF50FF4F608170E075956795680F711D22
:1055C0006F3F710519F010F06FEF70E0C7010E9496
:1055D00078267C01F694E794F694E794EA0CFB1C99
:1055E000EA81FB816385C6010E946E2620E4472D77
:1055F000429F90011124EA81FB81E051FF4F4081DD
:10560000AA81BB8159965C91459F412D112450E39D
:10561000459FD0011124A20FB31F73E09595879584
:105620007A95E1F78E0D9F1DA80FB91F2AEA39E27E
:105630000E9427397C5E814E9440985F97FD05C09B
:105640008115B0E19B0724F405C080E090E002C022
:105650008FEF9FE0EA81FB81E00FF11FE150FF4FE8
:10566000918380838A819B8182569F4F0E94F4267A
:10567000EA81FB81E253FF4F2081222311F08FEF5B
:105680009FEFEA81FB81E153FF4F2081222311F03C
:1056900080E090E06FEF0E947826EA81FB81EE5077
:1056A000FF4F60810E9478269C01C90196958795DD
:1056B0009695879596958795969587954A815B816E
:1056C000040F151FF801EF5FFE4F80839183FA01ED
:1056D000E45EFE4F862D8F5F837080832396E2E128
:1056E0000C945539CF93DF93EC0103C0CE010E9497
:1056F000FB28FE01E55EFE4F80818150FE01E45EE5
:10570000FE4F9081891B837089F7DF91CF910895B7
:10571000FC01E256FF4F23A134A130A3278F248937
:10572000358932A321A3168E11A612A613A614A69C
:10573000FC01EC5BFF4F23A134A130A3278F248908
:10574000358932A321A3168E11A612A613A614A67C
:10575000FC01EF58FF4F23A134A130A3278F2489E8
:10576000358932A321A3168E11A612A613A614A65C
:10577000FC01E353FF4F21E020830895DC01A25692
:10578000BF4F93962D913C91949790963C932E9376
:105790005F975A962D913C915B9792963C932E93EE
:1057A000919743E05E964C935E9799961D921D9259
:1057B0001D921C929C97DC01AC5BBF4F93962D9180
:1057C0003C91949790963C932E935F975A962D9187
:1057D0003C915B9792963C932E9391975E964C9357
:1057E0005E9799961D921D921D921C929C97FC01AA
:1057F000EF58FF4F83A194A190A3878F828D938D43
:1058000092A381A3468F11A612A613A614A60895EB
:10581000CF92DF92EF920F93CF93DF9300D01F923E
:10582000CDB7DEB76C01EE2021F0FC01818981113A
:1058300009C0C6012B834A8369830E94882B698132
:105840004A812B81F601E751FF4F80819181F6015A
:10585000EB51FF4F9183808330E8639FB0011124A7
:10586000562F372FF601E951FF4F60837183400FA8
:1058700047FD4FE7F601E051FF4F4083F601EF503F
:10588000FF4F0083892B31F0E11009C0F6018189B7
:10589000882329F0F601EB51FF4F50833183F60145
:1058A000808D30E0280F311D2F3F310519F010F0A9
:1058B0008FEF808FF901EE0FFF1FE75FF74D8591A6
:1058C0009491F601ED51FF4F80839183F601EF51E2
:1058D000FF4F118210820F900F900F90DF91CF91A8
:1058E0000F91EF90DF90CF9008956F3F11F00E94DD
:1058F000BE2B0895CF93DF93EC01C453DF4F288173
:10590000222331F04CE150E060E070E00E9481160B
:105910001882DF91CF9108950F93CF93DF93D82F03
:10592000C92F01E020E83AE24CE150E060E070E08D
:105930000E94A2164CE150E060E070E08D2F9C2F99
:105940000E948116DF91CF910F910895282F649FB7
:10595000C0014095249F4095800D911D1124892FF1
:105960000895682F8F3F51F08091E7039091E803ED
:1059700091FF04C040E080680E94D01F0895462F28
:105980009091E7032091E80321FF05C0682F892F3C
:1059900080690E94D01F089560919F0680E00E9458
:1059A0007F1C6091A00681E00E947F1C6091A1068F
:1059B00082E00E947F1C08958091A2060E94E31C51
:1059C0008091A3060E94D91C0895E091E903F0E0BC
:1059D000E65EFE4F4091990650E05595479520812F
:1059E00061E0809198060E94D21B0895E82FF0E0B4
:1059F000EA56F94F90816083691731F191E09093F5
:105A00007A0481110EC08091960690E001979595D9
:105A10008795813011F48FEF01C081E0809383047A
:105A20000895982F9250923018F40E94E52C089512
:105A3000982F9950933018F40E94CC2C08958C50D4
:105A4000823010F40E94DC2C0895CF93DF93EC0198
:105A5000BC0188ED94E00E94922880918B048823F9
:105A6000D9F0D851C130D041B8F08091F505E82F78
:105A7000F0E0A3E0F595E795AA95E1F7EA57F94F2D
:105A8000282F277081E090E0022E01C0880F0A9431
:105A9000EAF79081982B9083DF91CF910895682F3A
:105AA00088ED94E00E949828089588ED94E00E9483
:105AB000E728089510920903109208031092E70254
:105AC0001092E6028091E8029091E9029093E3023D
:105AD0008093E2021092E1021092D5041092D40455
